:020000040000FA
:060000000A128A110C280F
:10000800FE00030EFA000A08FB000A128A113028C3
:100018000A128A110F2883133630FD000130FE00C2
:10002800C030FF00203084000A128A11DA210A1237
:100038008A110A128A11F5210A128A11FC00B601E6
:10004800F001F101F201F301F401F501F601F70104
:1000580083010A128A11CD280B1D3328342853280E
:100068007303031D3828392853280130F80078080D
:10007800F50714307506031D422843284E287C08CE
:10008800031D472848284B28F3018B124D280130BF
:10009800FC02F5010A128A11EF210A128A110B1CBF
:1000A80056285728C62883120313061C5C285D2887
:1000B8008B2803307C06031D622863287D28720381
:1000C8000319672868286D287103031D6C286D289B
:1000D8007D280A128A118D210A128A110330F8002C
:1000E8007808FC00F701F601F201F101F301F001D3
:1000F8008B2803307C06031D822883288B28F30174
:10010800F30A8B160A128A11EF210A128A11831236
:100118000313861C90289128AC287C08031D952879
:100128009628AC28061D99289A289B28C62877085F
:10013800031D9F28A028A328F701F70AC5287708D8
:10014800F8007807F9007908F70077088700C528CC
:10015800061DAF28B028C5287C08031DB428B5287B
:10016800C5287608031DB928BA28BD28F601F60A5D
:10017800C5287608F8007807F9007908F6007608A7
:1001880088000B107B088A007A0E8300FE0E7E0E14
:1001980009000A128A115A210A128A117008031DCD
:1001A800D628D728E2287C0883120313B70037071C
:1001B800203E8400831300088500F6287003031D81
:1001C800E628E728EC288312031322088500F6287E
:1001D80002307006031DF128F228F6288312031353
:1001E80024088500803077060319FB28FC2802299B
:1001F80080307606031D01290229212980307706DF
:10020800031D072908290D29F201F20AF001F00A55
:100218001929803083120313B7003708F600F1015B
:10022800F10A0230B7003708F000F30103308312F7
:100238000313B7003708FC00272977088312031334
:100248008700760888007203031D2B292C292E2984
:10025800861534297103031D3229332934290616DA
:1002680003307C06031D39293A293C290914D22870
:1002780002307C06031D41294229452989140910A9
:10028800D2287C03031D49294A294D2909158910BB
:10029800D2287C08031D5129522956290915891489
:1002A8000914D228D2280A128A110C288316031797
:1002B8008801890183160313850187018801890153
:1002C80007308600831203138501860187018801A0
:1002D8008901831603130F178F160F120F1481123B
:1002E800011281110115811401140A128A11E921E0
:1002F8000A128A1183160313811315149514151500
:100308008B120B118B150B101614961416158B17D0
:1003180008008316031788018901831603138501D2
:10032800870188018901073086008312031385013C
:100338008601870188018901831603130F178F1619
:100348000F120F1481120112811101158114011469
:100358000A128A11EF210A128A11831603138113D4
:100368001514951415158B120B118B150B101614EB
:10037800961416158B1708003F34003406340034E1
:100388005B3400344F340034663400346D34003448
:100398007D340034073400347F340034673400344B
:1003A800023401347E088A007F0882000A128A110A
:1003B800D6210A128A118000840A04087D060319CE
:1003C8000034FF0A0319FE0ADA293D3083120313A9
:1003D80081000B1108003D308312031381000B11BB
:0403E80008000334D2
:04400E00C430FF3F7C
:00000001FF
