:020000040000FA
:060000000A128A110E280D
:10000800FE00030EF4000408F5000A08F6000A12C0
:100018008A1192280A128A11112883133030FD00A0
:100028000130FE00F130FF00203084000A128A11EE
:10003800E2210A128A11BD01BE01F701F801F90196
:10004800FA0183010A128A11322983120313B601B5
:10005800B11F2F2830283728B009B109B00A031971
:10006800B10AB601B60AB31F3A283B284428B20998
:10007800B309B20A0319B30A0130B4003408B6064A
:10008800B701B8013008310403194B284C288328DC
:10009800B501B50A5A2801300310B00DB10DFF3E65
:1000A800031D50280130B4003408B507B11F5D287E
:1000B8005E284F2801300310B70DB80DFF3E031D11
:1000C8005F2831083302031D6B2830083202031CF5
:1000D8006E286F2876283008B2023108031CB30353
:1000E800B302371401300310B10CB00CFF3E031DEE
:1000F80077280130B502031D822883285E28360838
:100108000319872888288D28B709B809B70A031959
:10011800B80A3808B1003708B00008000B1D952848
:100128009628C2280A128A1114220A128A118312E6
:10013800031388017908031DA228A328B128F9010F
:10014800F90A77080A128A1101220A128A118312FF
:100158000313870001308800C2287903031DB528DE
:10016800B628C228F90178080A128A1101220A124F
:100178008A11831203138700023088008312031345
:100188000C1FC728C828DB281F0CF300730C0F3975
:10019800053A031DD028D128D6281E08F300730875
:1001A800FA00DA281E08F3007308BE000C130B1CB3
:1001B800DE28DF28EE28061CE228E328E72801309D
:1001C800F30073088507861CEA28EB28ED28013020
:1001D80085020B1076088A0075088400740E830067
:1001E800FE0E7E0E09001030831203133E02031C1C
:1001F800FE28FF2826291030B0000030B1003E0844
:10020800B900BA013908B2003A08B3000A128A11D3
:1002180029200A128A11831203133008BB003B08F5
:10022800F700F030B9003908B00077080A128A11CF
:10023800B2210A128A11831203133E07BA003A0840
:10024800F800312910303E0203182B292C293129B6
:10025800F7013E08B9003908F80008000A128A11A7
:1002680068210A128A110A128A11C9210A128A11EE
:100278000A128A110C220A128A110F3083120313F0
:10028800BC00BC0B45294829831203139F140A128A
:100298008A118F210A128A110A128A11F7200A126A
:1002A8008A11831203130508BC003C08BD003E08F0
:1002B8000502031860296129632909154B290911C9
:1002C8004B290A128A110E286030831603178800FA
:1002D800890183160313850187018801033086008D
:1002E8000330890083120313850186018701880181
:1002F8008901831603130F178F160F120F1481131A
:10030800151495148B160B118B150B1016149614C7
:100318000B178B170800831203139F18942995292C
:10032800B1291F0CB000300C0F39053A031D9D2967
:100338009E29A3291F08C33918389F00A7291F0819
:10034800C33914389F000F3083120313B000B00B69
:10035800AB29AE29831203139F14080083120313D9
:10036800B300B201331CB929BA29BE293008B1003B
:100378003108B2070310B00D0310B30C3308031D86
:10038800C629C729B62932080800831603139F1304
:100398001F129F12831203131F083F3940389F0012
:1003A8001F08C33914389F001F140C138316031336
:1003B8000C1708007E088A007F0882000A128A113A
:1003C800DE210A128A118000840A04087D060319B6
:1003D8000034FF0A0319FE0AE2293F3406345B346D
:1003E8004F3466346D347D3407347F346734773462
:1003F8007C3439345E3479347134F1007108203E2C
:10040800840083130008F0007008F20072080800E6
:10041800831603138112811101158114011008003C
:0C042800F7308312031381000B11080051
:04400E00C430FF3F7C
:00000001FF
