:020000040000FA
:060000000A128A110C280F
:10000800FE00030EF1000A08F2000A168A15382CC1
:100018000A128A110F288313D4308400E3300A129D
:100028008A11F8270A128A11831790308400E03069
:100038000A128A11F8270A128A1183010A168A15E8
:10004800122E831603134B0883120313D80083164A
:1000580003134A0883120313D700831603134908AE
:1000680083120313D600831603134808831203135D
:10007800D5000A168A15E0260A128A11831203137C
:10008800580883160313BD008312031357088316F9
:100098000313BC0083120313560883160313BB0013
:1000A80083120313550883160313BA003D08F6009C
:1000B8003C08F5003B08F4003A08F30000300A1643
:1000C8008A1163200A128A11760883160313A30083
:1000D8007508A2007408A1007308A0004B08A700C7
:1000E8004A08A6004908A5004808A4000A168A1567
:1000F8006C250A128A11831603132308CB002208E1
:10010800CA002108C9002008C800C201C301CF01E4
:10011800CF0A4F0883120313EA0001300310EA0DD7
:10012800FF3E031D922803106A0D693E84000A16DB
:100138008A1500200A128A11EB000A168A15002077
:100148000A128A11EC000A168A1500200A128A116E
:10015800ED000A168A1500200A128A11EE006E08B0
:10016800831603133D02031DCF28831203136D0862
:10017800831603133C02031DCF28831203136C0854
:10018800831603133B02031DCF28831203136B0846
:10019800831603133A020318D228D328D428E22856
:1001A800013083120313EA006A0883160313CF078A
:1001B8000A304F06031DE128E2288D284F084C0716
:1001C80083120313EA00831603134D0803184D0A1C
:1001D80083120313EB0083160313420883120313DD
:1001E8006A07EC008316031343080318430A8312B3
:1001F80003136B07ED006C0883160313C602831202
:1002080003136D0883160313031CC703C7024C08A6
:100218004D040319102911291729FF30C60703189F
:10022800C70AFF30C7070330440583120313EA00E7
:10023800003083160313450583120313EB006A0885
:100248006B040319282929293129FF308316031340
:10025800C6070318C70AFF30C70783160313441DD0
:10026800362937299D290330440583120313EA00F0
:10027800003083160313450583120313EB006A0845
:100288006B0403194829492974292D30EA0083167B
:1002980003134E088400831203136A088313800033
:1002A8000130EA006A0883160313CE077429303038
:1002B80083120313EA00831603134E088400831283
:1002C80003136A08831380000130EA006A08831662
:1002D8000313CE07FF30C6070318C70AFF30C70746
:1002E800831603134708803AFF0080307F02031DFE
:1002F8007F29013046020318822983295B29422A73
:10030800203083120313EA00831603134E08840077
:10031800831203136A08831380000130EA006A0815
:1003280083160313CE07FF30C6070318C70AFF302A
:10033800C7074708803AFF0080307F02031DA629BF
:10034800013046020318A929AA29842903308316F3
:100358000313440583120313EA00003083160313C2
:10036800450583120313EB006A086B040319BD29C2
:10037800BE29422A2D30EA00831603134E08840052
:10038800831203136A08831380000130EA006A08A5
:1003980083160313CE07422A4F0883120313EA0079
:1003A80001300310EA0DFF3E031DD52903106A0D25
:1003B800693E84000A168A1500200A128A11F30081
:1003C8000A168A1500200A128A11F4000A168A15DC
:1003D80000200A128A11F5000A168A1500200A124E
:1003E8008A11F600831603133D08FA003C08F90049
:1003F8003B08F8003A08F7000A168A1578260A1208
:100408008A11760883160313C1007508C0007408A2
:10041800BF007308BE000030F6000030F500003061
:10042800F4000A30F3004108FA004008F9003F08D8
:10043800F8003E08F7000A168A15BC250A128A1128
:10044800760883160313C1007508C0007408BF003E
:100458007308BE003E08303E83120313EA00831679
:1004680003134E088400831203136A088313800061
:100478000130EA006A0883160313CE070130831699
:100488000313CF024F0A031D4A2A4B2AD029652A93
:10049800303083120313EA00831603134E088400D6
:1004A800831203136A08831380000130EA006A0884
:1004B80083160313CE07FF30C2070318C30AFF30A1
:1004C800C3074308803AFF0080307F02031D6E2A6D
:1004D800013042020318712A722A4C2A8316031328
:1004E8004D08803AFF0080307F02031D7D2A0930C5
:1004F8004C02031C802A812A8A2A0830831203139B
:10050800EA006A0883160313CF00942A831603139C
:100518004C0883120313EA006A0883160313CF00FA
:100528004F0883120313EA00EB016A0883160313CA
:10053800CC02831203136B0883160313031CCD0329
:10054800CD024F080319A92AAA2ABD2A2E308312E0
:100558000313EA00831603134E088400831203135F
:100568006A08831380000130EA006A0883160313BF
:10057800CE074F080A128A159D240A128A1183127F
:100588000313450883160313B800831203134408A2
:1005980083160313B7008312031343088316031348
:1005A800B60083120313420883160313B5003808F4
:1005B80083120313AF008316031337088312031340
:1005C800AE0083160313360883120313AD00831697
:1005D8000313350883120313AC00831603134B0867
:1005E80083120313AB00831603134A088312031301
:1005F800AA0083160313490883120313A90083165C
:100608000313480883120313A8000A128A153C2111
:100618000A128A11831203132B08D8002A08D7005C
:100628002908D6002808D5000A168A15E0260A12D5
:100638008A1183120313580883160313BD0083120B
:100648000313570883160313BC00831203135608B9
:1006580083160313BB008312031355088316031371
:10066800BA00E72B4F0883120313EA000130031086
:10067800EA0DFF3E031D3B2B03106A0D693E840003
:100688000A168A1500200A128A11F3000A168A151A
:1006980000200A128A11F4000A168A1500200A128C
:1006A8008A11F5000A168A1500200A128A11F60026
:1006B800831603133D08FA003C08F9003B08F800CC
:1006C8003A08F7000A168A1578260A128A11760857
:1006D80083160313C1007508C0007408BF007308AF
:1006E800BE000030F6000030F5000030F4000A309B
:1006F800F3004108FA004008F9003F08F8003E08F6
:10070800F7000A168A15BC250A128A11760883167C
:100718000313C1007508C0007408BF007308BE0049
:100728003E08303E83120313EA00831603134E0873
:100738008400831203136A08831380000130EA00DF
:100748006A0883160313CE074F0883120313EA00BF
:1007580001300310EA0DFF3E031DAD2B03106A0D97
:10076800693E84000A168A1500200A128A11F300CD
:100778000A168A1500200A128A11F4000A168A1528
:1007880000200A128A11F5000A168A1500200A129A
:100798008A11F600831603133D08FA003C08F90095
:1007A8003B08F8003A08F7000A168A15BC250A1211
:1007B8008A11760883160313BD007508BC007408F7
:1007C800BB007308BA000130CF024F0A031DED2B9E
:1007D800EE2B362B082C303083120313EA008316D5
:1007E80003134E088400831203136A0883138000DE
:1007F8000130EA006A0883160313CE07FF30CC07DE
:100808000318CD0AFF30CD074C084D04031D0D2CED
:100818000E2CEF2B612D831603134C084D04031D7A
:10082800162C172C252C3D083C043B043A04031DC8
:100838001E2C1F2C252C0130CC070318CD0A0030A4
:10084800CD074D08803A803C031D2C2C4C084F02E4
:1008580003182F2C302C3B2C831603134C088312BF
:100868000313EA006A0883160313CF005F2C83166C
:1008780003134D08803A83120313EA0080306A029A
:10088800031D4A2C831603134F084C0203184D2CE2
:100898004E2C5F2C831603134F0883120313EA00B0
:1008A800EB016A0883160313CC00831203136B0849
:1008B80083160313CD008316031346084704031950
:1008C800662C672C812C0330440583120313EA003D
:1008D800003083160313450583120313EB006A08DF
:1008E8006B040319782C792C812CFF3083160313A1
:1008F800C6070318C70AFF30C70783160313451F27
:10090800862C872CAA2C4D08803A83120313EA0000
:10091800831603134708803A831203136A02031DE0
:10092800992C8316031346084C0203189C2C9D2C03
:10093800A62C831603134C08C6024D08031CC703D4
:10094800C702AA2C83160313C601C7014708803AB9
:10095800803C031DB12C46084F020318B42CB52C5B
:10096800C92C831603134F0883120313EA00EB0103
:100978006A0883160313C602831203136B088316CF
:100988000313031CC703C702CD2C83160313C60128
:10099800C701441DD02CD12C1C2D033044058312D3
:1009A8000313EA000030831603134505831203136B
:1009B800EB006A086B040319E22CE32CF42C2D30AD
:1009C800EA00831603134E088400831203136A088F
:1009D800831380000130EA006A0883160313CE07E8
:1009E80083160313460847040319FB2CFC2C612DBE
:1009F800303083120313EA00831603134E08840071
:100A0800831203136A08831380000130EA006A081E
:100A180083160313CE07FF30C6070318C70AFF3033
:100A2800C70746084704031D1A2D1B2DFC2C612DF2
:100A3800460847040319212D222D412D2030831209
:100A48000313EA00831603134E088400831203136A
:100A58006A08831380000130EA006A0883160313CA
:100A6800CE07FF30C6070318C70AFF30C707460876
:100A78004704031D402D412D222D033044058312C8
:100A88000313EA000030831603134505831203138A
:100A9800EB006A086B040319522D532D612D2D307C
:100AA800EA00831603134E088400831203136A08AE
:100AB800831380000A128A154B280130831603130A
:100AC800A807FF30280784000A168A1500200A1292
:100AD8008A1183120313EA006A0883160313CF00EE
:100AE8004F08031D782D7B2D0A128A153828831686
:100AF80003134E0884008313800108008312031334
:100B0800D5006E305502031C8A2D8B2D9A2E3F304E
:100B1800AB000030AA000030A9000030A800643003
:100B2800A0000030A1005508C600C7014608A20071
:100B38004708A3000A168A15D6240A128A118312B6
:100B480003132008C80001300310C80DFF3E031D21
:100B5800A82D0310480D7D3E84000A168A15002032
:100B68000A128A11C9000A168A1500200A128A1167
:100B7800CA000A168A1500200A128A11CB000A1622
:100B88008A1500200A128A11CC004C08AF004B08C5
:100B9800AE004A08AD004908AC000A128A153C218B
:100BA8000A128A11831203132B08D4002A08D300CF
:100BB8002908D2002808D1000A30A0000030A1007E
:100BC8005508C600C7014608F5004708F600643016
:100BD800F3000030F4000A168A155F240A128A11FD
:100BE800740883120313A3007308A2000A168A1557
:100BF800D6240A128A11831203132008C800013070
:100C08000310C80DFF3E031D042E0310480D593E66
:100C180084000A168A1500200A128A11C9000A16C9
:100C28008A1500200A128A11CA000A168A1500209D
:100C38000A128A11CB000A168A1500200A128A1194
:100C4800CC004C08AB004B08AA004A08A900490888
:100C5800A8005408AF005308AE005208AD00510870
:100C6800AC000A128A153C210A128A118312031356
:100C78002B08D0002A08CF002908CE002808CD006C
:100C88000A30F3000030F4005508C600C7014608D2
:100C9800F5004708F6000A168A155F240A128A1119
:100CA800730883120313C80001300310C80DFF3EF8
:100CB800031D592E0310480D353E84000A168A1567
:100CC80000200A128A11C9000A168A1500200A1281
:100CD8008A11CA000A168A1500200A128A11CB0046
:100CE8000A168A1500200A128A11CC004C08AB009B
:100CF8004B08AA004A08A9004908A8005008AF00F4
:100D08004F08AE004E08AD004D08AC000A128A1517
:100D18003C210A128A11831203132B08C5002A08E2
:100D2800C4002908C3002808C2008E2F0B305502C2
:100D3800031C9F2EA02E4B2F3F30AB000030AA0083
:100D48000030A9000030A8000A30A0000030A1003F
:100D58005508C600C7014608A2004708A3000A169E
:100D68008A15D6240A128A11831203132008C80090
:100D780001300310C80DFF3E031DBD2E0310480DA2
:100D8800593E84000A168A1500200A128A11C900E1
:100D98000A168A1500200A128A11CA000A168A152C
:100DA80000200A128A11CB000A168A1500200A129E
:100DB8008A11CC004C08AF004B08AE004A08AD00C1
:100DC8004908AC000A128A153C210A128A118312BA
:100DD80003132B08D4002A08D3002908D2002808B6
:100DE800D1000A30F3000030F4005508C600C701EE
:100DF8004608F5004708F6000A168A155F240A1205
:100E08008A11730883120313C80001300310C80D38
:100E1800FF3E031D0A2F0310480D353E84000A16B5
:100E28008A1500200A128A11C9000A168A1500209C
:100E38000A128A11CA000A168A1500200A128A1193
:100E4800CB000A168A1500200A128A11CC004C0819
:100E5800AB004B08AA004A08A9004908A800540892
:100E6800AF005308AE005208AD005108AC000A129A
:100E78008A153C210A128A11831203132B08C50014
:100E88002A08C4002908C3002808C2008E2F3F3052
:100E9800AB000030AA000030A9000030A8005508B7
:100EA800C60001300310C60DFF3E031D562F031068
:100EB800460D353E84000A168A1500200A128A114A
:100EC800C7000A168A1500200A128A11C8000A16D5
:100ED8008A1500200A128A11C9000A168A150020EC
:100EE8000A128A11CA004A08AF004908AE00480829
:100EF800AD004708AC000A128A153C210A128A1173
:100F0800831203132B08C5002A08C4002908C3004C
:100F18002808C200080083120313A501A11F952FFA
:100F2800962F9D2FA009A109A00A0319A10AA501BE
:100F3800A50AA31FA02FA12FAA2FA209A309A20ABD
:100F48000319A30A0130FA007A08A506A601A70129
:100F5800200821040319B12FB22FE92FA401A40AF4
:100F6800C02F01300310A00DA10DFF3E031DB62FA9
:100F78000130FA007A08A407A11FC32FC42FB52F88
:100F880001300310A60DA70DFF3E031DC52F210834
:100F98002302031DD12F20082202031CD42FD52F92
:100FA800DC2F2008A2022108031CA303A302261495
:100FB80001300310A10CA00CFF3E031DDD2F0130F2
:100FC800A402031DE82FE92FC42F25080319ED2FCC
:100FD800EE2FF32FA609A709A60A0319A70A2708BF
:100FE800A1002608A000080064008001840A040605
:080FF800031900340406F92F6F
:1010020083120313A400A001A1017308F500F601E5
:101012007508A2007608A300241C1028112817289E
:101022002208A0070318A10A2308A1070130031010
:10103200A20DA30DFF3E031D18280310A40C2408C3
:10104200031D242825280D282108F4002008F30078
:10105200080083160313CE00A93083120313EA009B
:101062006A0883160313B9000A128A11612D25300A
:101072004F0603193D283E2852284F0883120313B6
:10108200EA00831603134E088400831203136A08CE
:10109200831380000130EA006A0883160313CE0727
:1010A2003528C601C701C401C5016228831603138E
:1010B2004415013083120313EA006A0883160313EE
:1010C200A807280884000A168A1500200A128A1521
:1010D20083120313EA00EB016B08003A031972282A
:1010E20077286A08303A031957287728831603139A
:1010F200280884000A168A1500200A128A150A1680
:101102008A15E0230A128A15031C88288928D52803
:1011120083160313C601C7010A30F3000030F4003E
:10112200831603134708F6004608F5000A168A15C7
:1011320013240A128A15740883160313C70073084E
:10114200C600280884000A168A1500200A128A1589
:10115200D03E83120313EA00FF3003180030EB0085
:101162006A0883160313C6070318C70A83120313F8
:101172006B0883160313C707013083120313EA00B7
:101182006A0883160313A807280884000A168A151A
:1011920000200A128A150A168A15E0230A128A15F5
:1011A2000318D428D5288D28831603132808840011
:1011B2000A168A1500200A128A152E3A031DE22801
:1011C200E5280A168A11222D4517013083120313CE
:1011D200EA006A0883160313A807CC01CD01292966
:1011E2000A30F3000030F400831603134D08F600B2
:1011F2004C08F5000A168A1513240A128A15740877
:1012020083160313CD007308CC00280884000A1645
:101212008A1500200A128A15D03E83120313EA00AF
:10122200FF3003180030EB006A0883160313CC0763
:101232000318CD0A831203136B0883160313CD0719
:10124200013083120313EA006A0883160313A80706
:10125200280884000A168A1500200A128A150A161E
:101262008A15E0230A128A15031838293929F12828
:101272000A168A112A2D831203132B088039B00013
:101282003008B5002B08B0003007B1003108BB00B0
:10129200AA1F4C294D294E293B143B0803195229F8
:1012A200532962293B0A031D572958296029003016
:1012B200AB000030AA000030A9000030A800AA1735
:1012C2006A290030AB000030AA000030A9000030CB
:1012D200A8002F088039B0003008B5062F08B000EA
:1012E2003007B1003108BA00AE1F782979297A296E
:1012F2003A143A0803197E297F298E293A0A031DD6
:10130200832984298C290030AF000030AE000030E0
:10131200AD000030AC00AE1796290030AF000030AF
:10132200AE000030AD000030AC003A0803199A2933
:101332009B29A0293B08031D9F29A029A929003028
:10134200AB000030AA000030A9000030A8009C2C9D
:101352002808B0003008F3002E080A128A1501206E
:101362000A128A15740883120313C1007308C0009D
:101372004008B000B101B201B3013308B90032082C
:10138200B8003108B7003008B6004108B000B1011A
:10139200B201B3013308BF003208BE003108BD00FC
:1013A2003008BC002908B0003008F3002D080A12EA
:1013B2008A1501200A128A15740883120313C100C8
:1013C2007308C0004008B000B101B201B301300897
:1013D200B607310803110318013E0319F129B707B3
:1013E200320803110318013E0319F829B80733081C
:1013F20003110318013E0319FF29B9074108B00080
:10140200B101B201B3013008BC073108031103185E
:10141200013E03190D2ABD07320803110318013ECC
:101422000319142ABE07330803110318013E0319D6
:101432001B2ABF072A08B0003008F3002C080A1242
:101442008A1501200A128A15740883120313C10037
:101452007308C0004008B000B101B201B301300806
:10146200B607310803110318013E0319392AB707D9
:10147200320803110318013E0319402AB807330842
:1014820003110318013E0319472AB9074108B000A6
:10149200B101B201B3013008BC07310803110318CE
:1014A200013E0319552ABD07320803110318013EF4
:1014B20003195C2ABE07330803110318013E0319FE
:1014C200632ABF070830B0000310B60DB70DB80D80
:1014D200B90DB00B652A2908B0003008F3002C08BA
:1014E2000A128A1501200A128A157408831203133C
:1014F200C1007308C0004008B0004108B100B20149
:10150200B3013008B607310803110318013E03196D
:101512008B2AB707320803110318013E0319922AD6
:10152200B807330803110318013E0319992AB907B2
:101532002808B0003008F3002D080A128A1501208D
:101542000A128A15740883120313C1007308C000BB
:101552004008B0004108B100B201B3013008B6073B
:10156200310803110318013E0319B82AB7073208DC
:1015720003110318013E0319BF2AB80733080311E8
:101582000318013E0319C62AB9070830B000031038
:10159200B60DB70DB80DB90DB00BC82A2808B000AA
:1015A2003008F3002C080A128A1501200A128A1543
:1015B200740883120313C1007308C0004008B0000E
:1015C2004108B100B201B3013008B6073108031176
:1015D2000318013E0319EE2AB70732080311031854
:1015E200013E0319F52AB807330803110318013E17
:1015F2000319FC2AB9072908B0003008F3002E08A5
:101602000A128A1501200A128A157408831203131A
:10161200C1007308C0004008B0004108B100B20127
:10162200B3013008BC07310803110318013E031946
:101632001B2BBD07320803110318013E0319222B8D
:10164200BE07330803110318013E0319292BBF07F4
:101652002A08B0003008F3002D080A128A1501206A
:101662000A128A15740883120313C1007308C0009A
:101672004008B0004108B100B201B3013008BC0714
:10168200310803110318013E0319482BBD07320824
:1016920003110318013E03194F2BBE073308031130
:1016A2000318013E0319562BBF072A08B000300861
:1016B200F3002E080A128A1501200A128A157408EC
:1016C20083120313C1007308C0004008B000410830
:1016D200B100B201B30108300310B00DB10DB20D6B
:1016E200B30DFF3E031D6D2B3008BC0731080311FB
:1016F2000318013E03197E2BBD073208031103189C
:10170200013E0319852BBE07330803110318013E5E
:1017120003198C2BBF073608B0003708B100380810
:10172200B2003908B30018300310B30CB20CB10C7C
:10173200B00CFF3E031D952B3008BC073108031186
:101742000318013E0319A62BBD0732080311031823
:10175200013E0319AD2BBE07330803110318013EE6
:101762000319B42BBF070830B0000310B60DB70D34
:10177200B80DB90DB00BB62B3B083A07B000B1015A
:10178200B10D3008823EC00031080318013EFF3E11
:10179200C100E82B0130B0000310BC0DBD0DBE0D21
:1017A200BF0DB00BCD2BB91FD72BD82BD92B3C1487
:1017B2000130B0000310B60DB70DB80DB90DB00B66
:1017C200DB2BFF30C0070318C10AFF30C107BE1F61
:1017D200EB2BEC2BCB2BBA01B91FF02BF12B0D2CE1
:1017E200FF303605B000FF303705B100FF30380555
:1017F200B2007F303905B3003308320431043004BB
:101802000319042C052C082CBA01BA0A0D2C3C1C15
:101812000B2C0C2C0D2C052C3A080319112C122C14
:10182200432C0130BC07003003180130BD070030E3
:1018320003180130BE07003003180130BF073F1CF8
:10184200232C242C432C3C08B0003D08B1003E0858
:10185200B2003F08B3000130B400330DB30CB20C38
:10186200B10CB00CB40B2E2C3308BF003208BE00F2
:101872003108BD003008BC000130C0070318C10A9E
:101882000030C1074108803AFF0080307F02031D0B
:101892004C2CFF304002031C4F2C502C5B2C7F3011
:1018A20083120313BF008030BE000030BD00003041
:1018B200BC00902C831203134108803AFF00803051
:1018C2007F02031D662C013040020318692C6A2C2A
:1018D200762C003083120313BF000030BE000030AC
:1018E200BD000030BC00B501902C831203134008E8
:1018F200B0003008BB00FF30BC05FF30BD057F30B3
:10190200BE050030BF053B1C872C882C892CBE17D6
:101912003B08B0000310300CB1003108BF0035089D
:10192200B0003008BF043F08AB003E08AA003D08E3
:10193200A9003C08A800080083120313D400D41F96
:10194200A32CA42C532ED409D40A5408803A123E54
:10195200031CAC2CAD2C972D0A30A0000030A10046
:101962005408F500F601F51BF6036430F30000306D
:10197200F4000A168A110A200A128A1574088312C0
:101982000313A3007308A2000A128A118F270A12F6
:101992008A15831203132008C60001300310C60DF6
:1019A200FF3E031DCF2C0310460D593E84000A163C
:1019B2008A1500200A128A15C7000A168A15002005
:1019C2000A128A15C8000A168A1500200A128A15F8
:1019D200C9000A168A1500200A128A15CA004A0886
:1019E200AB004908AA004808A9004708A8006430CB
:1019F200A0000030A1005408A200A301A21BA3036F
:101A02000A128A118F270A128A15831203132008D9
:101A1200CB0001300310CB0DFF3E031D0B2D031035
:101A22004B0D7D3E84000A168A1500200A128A1583
:101A3200CC000A168A1500200A128A15CD000A1651
:101A42008A1500200A128A15CE000A168A1500206D
:101A52000A128A15CF004F08AF004E08AE004D089B
:101A6200AD004C08AC000A128A153C210A128A15F4
:101A7200831203132B08D3002A08D2002908D100AD
:101A82002808D0000A30F3000030F4005408F500B2
:101A9200F601F51BF6030A168A110A200A128A15A4
:101AA200730883120313C60001300310C60DFF3EF4
:101AB200031D562D0310460D353E84000A168A1565
:101AC20000200A128A15C7000A168A1500200A1277
:101AD2008A15C8000A168A1500200A128A15C9003A
:101AE2000A168A1500200A128A15CA004A08AB0093
:101AF2004908AA004808A9004708A8005308AF00EF
:101B02005208AE005108AD005008AC000A128A1506
:101B12003C210A128A15831203132B08C5002A08D6
:101B2200C4002908C3002808C200FF2F5408803AC5
:101B3200753E031C9D2D9E2D262E0A30F30000308B
:101B4200F4005408F500F601F51BF6030A168A1193
:101B52000A200A128A15730883120313C600013081
:101B62000310C60DFF3E031DB12D0310460D353E79
:101B720084000A168A1500200A128A15C7000A165E
:101B82008A1500200A128A15C8000A168A15002032
:101B92000A128A15C9000A168A1500200A128A1525
:101BA200CA004A08AB004908AA004808A900470829
:101BB200A8000A30A0000030A1005408A200A3012E
:101BC200A21BA3030A128A118F270A128A158312F3
:101BD20003132008CB0001300310CB0DFF3E031D81
:101BE200ED2D03104B0D593E84000A168A15002074
:101BF2000A128A15CC000A168A1500200A128A15C2
:101C0200CD000A168A1500200A128A15CE000A167D
:101C12008A1500200A128A15CF004F08AF004E081D
:101C2200AE004D08AD004C08AC000A128A153C21EA
:101C32000A128A15831203132B08C5002A08C4004E
:101C42002908C3002808C200FF2F5408C60001302B
:101C52000310C60DFF3E031D292E0310460D353E0F
:101C620084000A168A1500200A128A15C7000A166D
:101C72008A1500200A128A15C8000A168A15002041
:101C82000A128A15C9000A168A1500200A128A1534
:101C9200CA004A08C5004908C4004808C3004708EA
:101CA200C200FF2F5408803A123E031C592E5A2EAE
:101CB200442F0A30A0000030A1005408F500F601BC
:101CC200F51BF6036430F3000030F4000A168A11A3
:101CD2000A200A128A15740883120313A3007308D8
:101CE200A2000A128A118F270A128A15831203137D
:101CF2002008C60001300310C60DFF3E031D7C2ED6
:101D02000310460D253E84000A168A1500200A1289
:101D12008A15C7000A168A1500200A128A15C800F9
:101D22000A168A1500200A128A15C9000A168A158F
:101D320000200A128A15CA004A08AB004908AA0004
:101D42004808A9004708A8006430A0000030A1009C
:101D52005408A200A301A21BA3030A128A118F270F
:101D62000A128A15831203132008CB0001300310D4
:101D7200CB0DFF3E031DB82E03104B0D493E8400D0
:101D82000A168A1500200A128A15CC000A168A152C
:101D920000200A128A15CD000A168A1500200A129E
:101DA2008A15CE000A168A1500200A128A15CF005B
:101DB2004F08AF004E08AE004D08AD004C08AC0015
:101DC2000A128A153C210A128A15831203132B0860
:101DD200D3002A08D2002908D1002808D0000A30EE
:101DE200F3000030F4005408F500F601F51BF60389
:101DF2000A168A110A200A128A157308831203131B
:101E0200C60001300310C60DFF3E031D032F031051
:101E1200460D013E84000A168A1500200A128A1510
:101E2200C7000A168A1500200A128A15C8000A1667
:101E32008A1500200A128A15C9000A168A1500207E
:101E42000A128A15CA004A08AB004908AA004808C3
:101E5200A9004708A8005308AF005208AE00510875
:101E6200AD005008AC000A128A153C210A128A15EC
:101E7200831203132B08C5002A08C4002908C300D3
:101E82002808C200FF2F5408803A753E031C4A2FCF
:101E92004B2FD32F0A30F3000030F4005408F50022
:101EA200F601F51BF6030A168A110A200A128A1590
:101EB200730883120313C60001300310C60DFF3EE0
:101EC200031D5E2F0310460D013E84000A168A157B
:101ED20000200A128A15C7000A168A1500200A1263
:101EE2008A15C8000A168A1500200A128A15C90026
:101EF2000A168A1500200A128A15CA004A08AB007F
:101F02004908AA004808A9004708A8000A30A0000A
:101F12000030A1005408A200A301A21BA3030A12CD
:101F22008A118F270A128A15831203132008CB0005
:101F320001300310CB0DFF3E031D9A2F03104B0DF2
:101F4200253E84000A168A1500200A128A15CC0042
:101F52000A168A1500200A128A15CD000A168A1559
:101F620000200A128A15CE000A168A1500200A12CB
:101F72008A15CF004F08AF004E08AE004D08AD00E5
:101F82004C08AC000A128A153C210A128A158312E7
:101F920003132B08C5002A08C4002908C300280817
:101FA200C200FF2F5408C60001300310C60DFF3EC9
:101FB200031DD62F0310460D013E84000A168A1512
:101FC20000200A128A15C7000A168A1500200A1272
:101FD2008A15C8000A168A1500200A128A15C90035
:101FE2000A168A1500200A128A15CA004A08C50074
:101FF2004908C4004808C3004708C2000800F300AB
:10200200831203130C1E062807280128730899005F
:102012000800F901F61F0E280F281628F509F609FF
:10202200F50A0319F60AF901F90AF41F19281A2800
:102032001F28F309F409F30A0319F40A7308740454
:102042000319242825285428F801F80A33280130D6
:102052000310F30DF40DFF3E031D29280130F70094
:102062007708F807F41F36283728282874087602DC
:10207200031D3D2873087502031C40284128472888
:102082007308F5027408031CF603F602013003100C
:10209200F40CF30CFF3E031D48280130F802031D27
:1020A20053285428372879080319582859285E28B4
:1020B200F509F609F50A0319F60A7608F400750817
:1020C200F300080083120313A000200803196A28F2
:1020D2006B287F28F61F6E286F287F287309A200BD
:1020E2007409A3007509A4007609A500A20A0319C0
:1020F200A30A0319A40A0319A50A87287608A500CA
:102102007508A4007408A3007308A2007608750479
:1021120074047304031D8E288F2898280030F6005B
:102122000030F5000030F4000030F3001E29963034
:10213200F7007708A100AA280130F7007708A10765
:1021420001300310A50CA40CA30CA20CFF3E031D2E
:10215200A228FE302505031DAF28B0289D28CC28D3
:102162000130F7007708A1070130A20700300318F9
:102172000130A307003003180130A4070030031810
:102182000130A50701300310A50CA40CA30CA20C6E
:10219200FF3E031DC428FF302505031DD128D22888
:1021A200B128DE280130A1020130F7000310A20D90
:1021B200A30DA40DA50DF70BD728A41BE128E22837
:1021C200E828023021020318E728E828D32821183A
:1021D200EB28EC28F428FF30A205FF30A3057F305E
:1021E200A405FF30A5050310A10C2108F700F80192
:1021F200F901FA0118300310F70DF80DF90DFA0D77
:10220200FF3E031DFC287708A2047808A30479087E
:10221200A4047A08A50420080319102911291629F3
:10222200F61F142915291629A5172508F6002408D2
:10223200F5002308F4002208F30008007308831253
:102242000313A0007408A1007508A2000310210D59
:10225200220DA3002308A9002908031D31293229D0
:102262003B290030F6000030F5000030F400003069
:10227200F300DB297708A0007808A1007908A20002
:102282000310210D220DA3002308A8002808031D16
:102292004B294C294D293229F417FF30F305FF3021
:1022A200F4050030F505F817FF30F705FF30F805A3
:1022B2000030F9050030A7000030A6000030A5006C
:1022C2000030A4007F30A90298302807A00020081F
:1022D200A9021830A0002008A8000130A0000310B5
:1022E200A40DA50DA60DA70DA00B702979087502E6
:1022F200031D812978087402031D8129770873025E
:10230200031C8429852990297708F3027808031C85
:10231200780FF4027908031C790AF50224140130BB
:102322000310F30DF40DF50DFF3E031D912901304D
:10233200A802031D9D299E296E29A91FA129A22950
:10234200BC292908803A973E0318A829A929AA2955
:10235200322901300310A70CA60CA50CA40CFF3ED9
:10236200031DAB290130A0002008A907031DBA29CB
:10237200BB29AA29D32918302902031CC129C22941
:10238200CE2932290130A0000310A40DA50DA60DFF
:10239200A70DA00BC5290130A9022908031DD229C6
:1023A200D329C3292708F6002608F5002508F400DA
:1023B2002408F30008000310750D760D8312031331
:1023C200A0002008A6002608031DE829E929F22911
:1023D2000030F6000030F5000030F4000030F30069
:1023E200992A0310790D7A0DA0002008A50025086E
:1023F200031DFC29FD29FE29E929F517FF30F30504
:10240200FF30F405FF30F5050030F605F917FF300F
:10241200F705FF30F805FF30F9050030FA05003006
:10242200A4000030A3000030A2000030A1007F30E1
:10243200A602A0302507A0002008A6022030A00096
:102442002008A5000130A0000310A10DA20DA30DCC
:10245200A40DA00B252A7A087602031D3A2A7908D0
:102462007502031D3A2A78087402031D3A2A770876
:102472007302031C3D2A3E2A4D2A7708F30278088C
:10248200031C780FF4027908031C790FF5027A080D
:10249200031C7A0FF60221140130A0000310F30D81
:1024A200F40DF50DF60DA00B4F2A0130A502031D08
:1024B2005B2A5C2A232AA61F5F2A602A7A2A260818
:1024C200803A9F3E0318662A672A682AE929013062
:1024D2000310A40CA30CA20CA10CFF3E031D692A3D
:1024E2000130A0002008A607031D782A792A682A4D
:1024F200912A20302602031C7F2A802A8C2AE9296D
:102502000130A0000310A10DA20DA30DA40DA00B7C
:10251200832A0130A6022608031D902A912A812AC5
:102522002408F6002308F5002208F4002108F3002D
:1025320008008312031359088039DE005E08E600A2
:102542005908DE005E07DF005F08E800D81FAA2AEC
:10255200AB2AAC2A681468080319B02AB12AC12A26
:10256200680A031DB52AB62ABE2A0030D9000030F7
:10257200D8000030D7000030D600D817D901C92AB8
:102582000030D9000030D8000030D7000030D6002B
:102592005D088039DE005E08E700670866060319F9
:1025A200D32AD42AD52A66175D08DE005E07DF002B
:1025B2005F08E700DC1FDE2ADF2AE02A67146708CB
:1025C2000319E42AE52AF52A670A031DE92AEA2AF9
:1025D200F22A0030DD000030DC000030DB00003089
:1025E200DA00DC17DD01FD2A0030DD000030DC00FE
:1025F2000030DB000030DA00680867020318022BA3
:10260200032B472B661F062B072B0B2B8030DE007C
:102612005E08E6066808DE005E08E9006708DE007C
:102622005E08E8006908DE005E08E7005608DE0082
:102632005E08E9005A08DE005E08D6006908DE007E
:102642005E08DA005708DE005E08E9005B08DE007B
:102652005E08D7006908DE005E08DB005808DE006D
:102662005E08E9005C08DE005E08D8006908DE004A
:102672005E08DC005908DE005E08E9005D08DE0045
:102682005E08D9006908DE005E08DD00E90167081E
:10269200DE00DF015F08E10068085E02E000031C63
:1026A200E1036108803AFF0080307F02031D5B2B4B
:1026B2001A306002031C5E2B5F2B9C2B83120313C8
:1026C2005908580457045604031D682B6A2B01301D
:1026D2006B2B0030DE005E08E9000030D9000030CC
:1026E200D8000030D7000030D6006708DE005E0850
:1026F200E800A42B691C7E2B7F2B882B6908DE0047
:1027020003105E0C0138DF005F08E9008A2B03101A
:10271200E90C561C8D2B8E2B8F2BE9170130DE0016
:10272200590DD90CD80CD70CD60CDE0B912B0130DD
:10273200DE005E08E8078312031367086802031CC1
:10274200A32BA42B7B2B661BA72BA82BF32B680890
:10275200031DAC2BAD2BB62B0030D9000030D800B6
:102762000030D7000030D600212D5A08D6075B086A
:1027720003110318013E0319BF2BD7075C0803118D
:102782000318013E0319C62BD8075D08031103186D
:10279200013E0319CD2BD907591CD02BD12BA72CC5
:1027A200691CD42BD52BDE2B6908DE0003105E0CCE
:1027B2000138DF005F08E900E02B0310E90C561C2A
:1027C200E32BE42BE52BE9170130DE00590DD90C80
:1027D200D80CD70CD60CDE0BE72B0130DE005E08DE
:1027E200E807A72C5908803AFF005D08803A7F026B
:1027F200031D052C5C085802031D052C5B085702BB
:10280200031D052C5A0856020318082C092C612CAA
:10281200FF30DE00FF30DF00FF30E000FF30E1007C
:102822005A08E2005B08E3005C08E4005D08E5008A
:102832005608E2025708031C570F202C212CE302F2
:102842005808031C580F262C272CE4025908031C95
:10285200590F2C2C2D2CE5026208DE0763080318A1
:10286200630F342C352CDF0764080318640F3A2CED
:102872003B2CE00765080318650AE1076108D900E7
:102882006008D8005F08D7005E08D6008030DE00FE
:102892005E08E606E909E90A6908031D512C522C73
:1028A2006F2C0130D607003003180130D7070030F3
:1028B20003180130D807003003180130D9076F2CF4
:1028C2005A08D6025B08031C5B0FD7025C08031C84
:1028D2005C0FD8025D08031C5D0FD9025908580429
:1028E20057045604031D762C772CA32C6908031D6C
:1028F2007B2C7C2CA32C0030D9000030D800003077
:10290200D7000030D600212D0130DE000310D60D95
:10291200D70DD80DD90DDE0B872CE91F912C922CE7
:10292200932C5614691C962C972C9A2C0314E90D9F
:102932009C2C0310E90D68080319A02CA12CA32CD0
:102942000130E802D81FA62CA72C852CE701E91F2D
:10295200AB2CAC2CBA2C69087F390319B12CB22CE0
:10296200B52CE701E70ABA2C561CB82CB92CBA2CA4
:10297200B22C67080319BE2CBF2CF32C0130D607EA
:10298200003003180130D707003003180130D80790
:10299200003003180130D907591CD02CD12CF32C4C
:1029A2005608DE005708DF005808E0005908E10029
:1029B2000130E200610DE10CE00CDF0CDE0CE20BF9
:1029C200DB2C6108D9006008D8005F08D7005E08D8
:1029D200D600680A0319EE2CEF2CF32C0130DE002E
:1029E2005E08E807680A0319F72CF82CFD2C680822
:1029F200031DFC2CFD2C0B2D0030D9000030D8001B
:102A02000030D7000030D6006808031D092D0A2DBA
:102A12000B2DE601681C0E2D0F2D112DD817152D2B
:102A22007F30DE005E08D8056808DE0003105E0C09
:102A3200DF005F08D900E61F1F2D202D212DD91799
:102A42000800CC01CD0145162A2D83160313451526
:102A52004A2D013083160313A807FF30280784008C
:102A62000A168A1500200A168A11CF008312031350
:102A7200EA00EB016B08003A0319422D0A128A118F
:102A8200612D6A08003A0319FD2F663A0319262DB3
:102A92003F2D0030440583120313EA0007308316EA
:102AA2000313450583120313EB006A086B04031931
:102AB2005B2D5E2D0A128A110F2C83160313451EFD
:102AC200632D642D682D0630CC000030CD0039080E
:102AD200840083130008C800840A0008C900840A1D
:102AE2000008CA00840A0008CB00043083120313D2
:102AF200EA006A0883160313B9074B08F6004A086E
:102B0200F5004908F4004808F3000030FA000030EC
:102B1200F9000030F8000030F7000A168A155C2729
:102B22000A168A110318962D972DB42D83160313B6
:102B32004B08F6004A08F5004908F4004808F3007B
:102B42000A168A15D5230A168A11760883160313E4
:102B5200CB007508CA007408C9007308C8000330A6
:102B6200C4040030C50483160313C201C3014B0819
:102B7200F6004A08F5004908F4004808F30000305E
:102B8200FA000030F9000030F8000030F7000A16B1
:102B92008A151C250A168A110318D02DD12DD12E83
:102BA2000310831603134A0D4B0D823EC200FF3001
:102BB20003180030C300FF30C2070318C30AFF30F6
:102BC200C3070330F3000030F4004308F600420864
:102BD200F5000A168A1513240A168A117408831638
:102BE2000313C3007308C2000A3083120313A00048
:102BF2000030A10083160313430883120313A300BA
:102C020083160313420883120313A2000A128A11C5
:102C12008F270A168A1183120313210883160313BE
:102C2200C30083120313200883160313C200C31FB9
:102C32001B2E1C2E222EFF30C2070318C30AFF30A0
:102C4200C3074203FF3A0A128A159D240A168A1103
:102C520083120313450883160313C100831203135F
:102C6200440883160313C000831203134308831618
:102C72000313BF0083120313420883160313BE001B
:102C82004B0883120313AB00831603134A08831203
:102C92000313AA0083160313490883120313A9001E
:102CA20083160313480883120313A8008316031321
:102CB200410883120313AF008316031340088312E3
:102CC2000313AE00831603133F0883120313AD00F0
:102CD200831603133E0883120313AC000A128A15EB
:102CE2003C210A168A11831203132B08831603133D
:102CF200C100831203132A0883160313C000831230
:102D02000313290883160313BF0083120313280831
:102D120083160313BE004108F6004008F5003F0881
:102D2200F4003E08F3003F30FA008030F900003032
:102D3200F8000030F7000A168A155C270A168A1175
:102D42000318A42EA52EAE2EFF3083160313C2073E
:102D52000318C30AFF30C307D12E83160313410899
:102D6200F6004008F5003F08F4003E08F300413049
:102D7200FA002030F9000030F8000030F7000A169F
:102D82008A155C270A168A11031CC82EC92ED12E59
:102D9200013083160313C2070318C30A0030C307A6
:102DA200831603134D08803AFF0080307F02031D13
:102DB200DC2E0D304C020318DF2EE02E272F831657
:102DC20003134C080A128A1182250A168A118312E9
:102DD20003134508D9004408D8004308D700420825
:102DE200D600831603134B0883120313DD008316E8
:102DF20003134A0883120313DC00831603134908E2
:102E020083120313DB008316031348088312031390
:102E1200DA000A168A119A220A168A1183120313F9
:102E2200590883160313CB00831203135808831621
:102E32000313CA0083120313570883160313C9002E
:102E420083120313560883160313C8008316031351
:102E52004308803AFF0080307F02031D322F0A3080
:102E620042020318352F362F892F831603134B087E
:102E7200F6004A08F5004908F4004808F30000305B
:102E8200FA000030F9000030F8000030F7000A16AE
:102E92008A151C250A168A110318502F532F0A125D
:102EA2008A112528831603134B0883120313D800B3
:102EB200831603134A0883120313D70083160313DE
:102EC200490883120313D60083160313480883129A
:102ED2000313D5000A168A15E0260A168A118312F0
:102EE20003135808570456045504031D792F7A2FEB
:102EF200502F831603134308803AFF0080307F026D
:102F0200031D852F02304202031C882F892F502F68
:102F1200831603134108F6004008F5003F08F40049
:102F22003E08F3004030FA008930F9007030F800B2
:102F32005F30F7000A168A155C270A168A110318F1
:102F4200A32FA42FAD2FF73083160313C207031844
:102F5200C30AFF30C307B52FF83083160313C20725
:102F62000318C30AFF30C30742080A128A159D24B8
:102F72000A168A1183120313450883160313C1002C
:102F820083120313440883160313C000831203132E
:102F9200430883160313BF008312031342088316E8
:102FA2000313BE004B08F6004A08F5004908F40076
:102FB2004808F3004108FA004008F9003F08F80009
:102FC2003E08F7000A168A11DC210A168A117608D1
:102FD20083160313BD007508BC007408BB00730898
:102FE200BA000030CB000030CA000030C900003007
:102FF200C8000A128A118B280A128A117B2D1830F6
:103002008A000408840A82070034003400348034C1
:103012003F34003400342034413400340034C834A6
:103022004234003400347A344434003440341C34A2
:10303200463400345034C3344734003424347434B6
:1030420049348034963418344B342034BC34BE3482
:103052004C3428346B346E344E34F9340234153423
:103062005034EC347834AD346034CA34F2344934F8
:1030720071340034003480343F34CD34CC34CC3419
:103082003D340A34D73423343C346F34123483341D
:103092003A341734B734D1343834AC34C5342734E5
:1030A2003734BD343734863435349534BF34D6346E
:1030B20033347734CC342B3432345F347034893443
:1030C2003034FF34E634DB342E340834E5343C3417
:1030D2001E3460344234A2340D34013400340034DE
:1030E20000340A34003400340034643400340034D0
:1030F2000034E8340334003400341034273400340C
:103102000034A034863401340034403442340F3465
:10311200003480349634983400340034E134F53489
:1031220005340034CA349A343B34253430342E34D6
:10313200303466342C34253430342E343034663412
:103142002C34253430342E34303466342C3400346C
:1037AA0076087504740473040319DC2BDD2BDF2BF4
:1037BA008030F6060800F400F3013A307402031868
:1037CA00E72BE82BF02B30307402031CED2BEE2B89
:1037DA00F02BF301F30A730C0800F700F501F60168
:1037EA00072C75087707F4007408840000080A1685
:1037FA008A1100200A168A150130F5070318F60AFD
:10380A000030F60775087707F400740884008313FC
:10381A000008031D112C122CF62B0800F701F801E1
:10382A00731C182C192C1F2C7508F7070318F80A93
:10383A007608F80701300310F50DF60DFF3E031D5B
:10384A00202C01300310F40CF30CFF3E031D272C2F
:10385A0073087404031D322C332C152C7808F400D9
:10386A007708F3000800831203138C1E3D2C3E2CAC
:10387A00442C1A08F000700883160313D8000B1C96
:10388A00472C482C582C8312061C4C2C4D2C512C9E
:10389A000130F00070088807861C542C552C572CD0
:1038AA00013088020B1072088A00710E8300FE0E26
:1038BA007E0E0900730874040319642C652C942C79
:1038CA00F801F80A732C01300310F30DF40DFF3ED2
:1038DA00031D692C0130F7007708F807F41F762CCE
:1038EA00772C682C74087602031D7D2C73087502E8
:1038FA00031C802C812C872C7308F5027408031C86
:10390A00F603F60201300310F40CF30CFF3E031D1C
:10391A00882C0130F802031D932C942C772C7608FE
:10392A00F4007508F3000800603083160317880056
:10393A008901831603138501C0308700880103308B
:10394A008600890183120313850186018701880194
:10395A008901831603130F178F160F160F141812E7
:10396A001815831603178715CF308316031399008A
:10397A009A01831203139817181318168316031340
:10398A0098168113151495148B150B10161496148A
:10399A00831203138C12831603138C160B178B17BF
:1039AA00080083120313A401A501200821040319A6
:1039BA00DF2CE02C172DA601A60AEE2C01300310ED
:1039CA00A00DA10DFF3E031DE42C0130F90079087A
:1039DA00A607A11FF12CF22CE32C01300310A40D31
:1039EA00A50DFF3E031DF32C21082302031DFF2C06
:1039FA0020082202031C022D032D0A2D2008A202F0
:103A0A002108031CA303A302241401300310A10CF0
:103A1A00A00CFF3E031D0B2D0130A602031D162D1F
:103A2A00172DF22C2508A1002408A0000800003058
:103A3A00730583120313A00000307405A1008030BF
:103A4A007505A2007F307605A3002308220421040D
:103A5A002004031D312D322D3A2D0030F60000309E
:103A6A00F5000030F4000030F30000307705A000C4
:103A7A0000307805A10080307905A2007F307A05F0
:103A8A00A3002308220421042004031D4D2D4E2DDA
:103A9A00562D0030FA000030F9000030F8000030EE
:103AAA00F7007A087606031D642D79087506031D4A
:103ABA00642D78087406031D642D770873060319AC
:103ACA00672D682D6A2D03106B2D031408008030B2
:103ADA0083160313A306270883120313D900831638
:103AEA000313260883120313D80083160313250829
:103AFA0083120313D70083160313240883120313B4
:103B0A00D60083160313230883120313DD008316DA
:103B1A000313220883120313DC00831603132108FC
:103B2A0083120313DB008316031320088312031383
:103B3A00DA000A168A119A220A168A1583120313C0
:103B4A00590883160313A300831203135808831614
:103B5A000313A20083120313570883160313A10049
:103B6A0083120313560883160313A000080076086D
:103B7A007504740473040319C32DC42D092E83120A
:103B8A000313A101A10AD62D0130A0000310F30DE1
:103B9A00F40DF50DF60DA00BCB2D0130A000200879
:103BAA00A107F61FD92DDA2DC92D76087A02031D31
:103BBA00E82D75087902031DE82D74087802031DA3
:103BCA00E82D73087702031CEB2DEC2DFA2D7308F0
:103BDA00F7027408031C740FF8027508031C750FAA
:103BEA00F9027608031C760FFA0201300310F60C6C
:103BFA00F50CF40CF30CFF3E031DFB2D0130A10262
:103C0A00031D082E092EDA2D7A08F6007908F50028
:103C1A007808F4007708F30008000A168A15992430
:103C2A000A168A150B3083160313D2002630D100E8
:103C3A005D30D000D00B1F2ED10B1F2ED20B1F2EA2
:103C4A0083120313080883160313D000D101D2018B
:103C5A00D3015308F6005208F5005108F400500841
:103C6A00F30000300A168A1163200A168A157608AC
:103C7A0083160313D7007508D6007408D500730895
:103C8A00D4009130D0005008A8005708AC0056085C
:103C9A00AB005508AA005408A9005708B0005608F6
:103CAA00AF005508AE005408AD005708B4005608D6
:103CBA00B3005508B2005408B100D9300A128A1567
:103CCA002A200A168A15D9300A168A15F2230A16E4
:103CDA008A15831603135808831203138500172EB7
:103CEA000A128A110C28003083120313A400003030
:103CFA00A3000030A2000030A10076087504740405
:103D0A0073040319892E8A2ED72EA501A50A9A2E85
:103D1A000130A0000310F30DF40DF50DF60DA00B04
:103D2A008F2E0130A0002008A507F61F9D2E9E2E7B
:103D3A008D2E0130A0000310A10DA20DA30DA40D1C
:103D4A00A00BA02E76087A02031DB52E75087902FB
:103D5A00031DB52E74087802031DB52E7308770269
:103D6A00031CB82EB92EC82E7308F7027408031C58
:103D7A00740FF8027508031C750FF9027608031C04
:103D8A00760FFA02211401300310F60CF50CF40C2C
:103D9A00F30CFF3E031DC92E0130A502031DD62ECA
:103DAA00D72E9E2E2408F6002308F5002208F400D8
:103DBA002108F3000800031083120313570D580D4E
:103DCA00D9005908DF005F08031DEC2EED2EF62EF0
:103DDA000030D8000030D7000030D6000030D500BF
:103DEA005B2F5508D9005608DA005708DB00580837
:103DFA00DC001F300310DC0CDB0CDA0CD90CFF3EA4
:103E0A00031DFF2E5908DD005D08DE00D717FF30BD
:103E1A00D505FF30D605FF30D7050030D8059630D6
:103E2A00DF02DF1F192F1A2F342F5F08803A973EBF
:103E3A000318202F212F222FED2E01300310D80C2A
:103E4A00D70CD60CD50CFF3E031D232F0130D90009
:103E5A005908DF07031D322F332F222F4B2F203013
:103E6A005F02031C392F3A2F462FED2E0130D9005D
:103E7A000310D50DD60DD70DD80DD90B3D2F013016
:103E8A00DF025F08031D4A2F4B2F3B2F5E080319E1
:103E9A004F2F502F5B2FD509D609D709D809D50A34
:103EAA000319D60A0319D70A0319D80A08000030D9
:103EBA00730583120313A00000307405A10080303B
:103ECA007505A2007F307605A30023082204210489
:103EDA002004031D712F722F7A2F0030F600003054
:103EEA00F5000030F4000030F30000307705A00040
:103EFA0000307805A10080307905A2007F307A056C
:103F0A00A3002308220421042004031D8D2F8E2FD1
:103F1A00962F0030FA000030F9000030F800003027
:103F2A00F700F61F992F9A2FBE2F0030A0000030FD
:103F3A00A1000030A2008030A3007308A002740818
:103F4A00031C740FA92FAA2FA1027508031C750F51
:103F5A00AF2FB02FA2027608031C760FB52FB62F0B
:103F6A00A3022308F6002208F5002108F40020081D
:103F7A00F300FA1FC12FC22FE62F0030A000003035
:103F8A00A1000030A2008030A3007708A0027808C0
:103F9A00031C780FD12FD22FA1027908031C790FA5
:103FAA00D72FD82FA2027A08031C7A0FDD2FDE2F13
:103FBA00A3022308FA002208F9002108F8002008C1
:103FCA00F7008030F6068030FA067A087602031D7A
:103FDA00F82F79087502031DF82F78087402031D5B
:103FEA00F82F770873020318FB2FFC2FFE2F0310FC
:063FFA00FF2F0314080074
:04400E00D420FF3F7C
:00000001FF
