:020000040000FA
:060000000A128A110C280F
:10000800FE00030EF1000A08F2000A168A15282CD1
:100018000A128A110F28FA0183120313EF018313BE
:10002800CD308400D6300A168A15FB230A128A11AD
:10003800831790308400E0300A168A15FB230A12D1
:100048008A111030840060300A168A15FB230A12C0
:100058008A1183010A128A15672883160313480830
:1000680083120313A3008316031347088312031391
:10007800A20083160313460883120313A1008316F4
:100088000313450883120313A0000030A7000030B3
:10009800A6000030A5000030A4000A168A1519250C
:1000A8000A128A11031859285A283C29831603135F
:1000B800480883120313D9008316031347088312D1
:1000C8000313D80083160313460883120313D700BB
:1000D80083160313450883120313D6000A168A15DC
:1000E800E0260A128A118312031359085804570488
:1000F8005604031D802881283C29831603134408CD
:10010800803AFF0080307F02031D8C2802304302B2
:10011800031C8F2890283C29831603134208831256
:100128000313A30083160313410883120313A200C9
:1001380083160313400883120313A10083160313C5
:100148003F0883120313A0004030A7008930A6009F
:100158007030A5005F30A4000A168A155C270A12C1
:100168008A110318B828B928C228F7308316031350
:10017800C3070318C40AFF30C407CA28F830831617
:100188000313C3070318C40AFF30C40743080A123D
:100198008A159D240A128A118312031346088316AE
:1001A8000313C20083120313450883160313C10007
:1001B80083120313440883160313C0008312031326
:1001C800430883160313BF00480883120313A300D0
:1001D80083160313470883120313A200831603131D
:1001E800460883120313A1008316031345088312DC
:1001F8000313A00083160313420883120313A700F6
:1002080083160313410883120313A60083160313EE
:10021800400883120313A500831603133F088312B3
:100228000313A4000A168A11B4210A128A11831230
:100238000313230883160313BA0083120313220837
:1002480083160313B90083120313210883160313BB
:10025800B80083120313200883160313B700003075
:10026800C8000030C7000030C6000030C500A22911
:1002780083160313480883120313D9008316031344
:10028800470883120313D800831603134608831202
:100298000313D70083160313450883120313D600EC
:1002A8000A168A15E0260A128A11831203135908BE
:1002B80083160313BA008312031358088316031313
:1002C800B90083120313570883160313B800831267
:1002D8000313560883160313B7003A08F6003908C3
:1002E800F5003808F4003708F30000300A168A11C0
:1002F8003B200A128A11760883160313A300750897
:10030800A2007408A1007308A0004808A7004708C5
:10031800A6004608A5004508A4000A168A156925FE
:100328000A128A11831603132308C8002208C7007B
:100338002108C6002008C500C301C401CC01CC0AAD
:100348004C08AD0001300310AD0DFF3E031DA72979
:1003580003102D0D693E84000A168A1500200A1222
:100368008A11AE000A168A1500200A128A11AF00F7
:100378000A168A1500200A128A11B0000A168A1570
:1003880000200A128A11B10031083A02031DD62949
:1003980030083902031DD6292F083802031DD62933
:1003A8002E0837020318D929DA29DB29E529013073
:1003B800AD002D08CC070A304C06031DE429E529B9
:1003C800A4294C084A07AD004B0803184B0AAE0095
:1003D80043082D07AF0044080318440A2E07B0004D
:1003E8002F08BD023008031CBE03BE024A084B0496
:1003F8000319FF29002A062AFF30BD070318BE0A81
:10040800FF30BE0703303B05AD0000303C05AE00B1
:100418002D082E040319112A122A272AFF30BD0796
:100428000318BE0AFF30BE07272A2030831603139D
:10043800AD00490884002D08831780000130AD0005
:100448002D08C907122A3E08803AFF0080307F0233
:10045800031D302A01303D020318332A342A192A91
:100468000330831603133B05AD0000303C05AE0096
:100478002D082E040319412A422AF42A2D30AD00F2
:10048800490884002D08831780000130AD002D082D
:10049800C907F42A4C08AD0001300310AD0DFF3E2A
:1004A800031D512A03102D0D693E84000A168A1572
:1004B80000200A128A1183120313A0000A168A1553
:1004C80000200A128A11A1000A168A1500200A12B1
:1004D8008A11A2000A168A1500200A128A11A3009E
:1004E800831603133A0883120313A7008316031312
:1004F800390883120313A6008316031338088312DE
:100508000313A50083160313370883120313A400EB
:100518000A168A150F260A128A1183120313230852
:1005280083160313C20083120313220883160313CE
:10053800C10083120313210883160313C00083121A
:100548000313200883160313BF000030831203131C
:10055800A3000030A2000030A1000A30A0008316DA
:100568000313420883120313A700831603134108D9
:1005780083120313A6008316031340088312031380
:10058800A500831603133F0883120313A4000A1659
:100598008A15B9250A128A118312031323088316B0
:1005A8000313C20083120313220883160313C10026
:1005B80083120313210883160313C0008312031345
:1005C800200883160313BF003F08303EAD004908DA
:1005D80084002D08831780000130AD002D08C9075D
:1005E8000130CC024C0A031DFA2AFB2A4E2A0F2B93
:1005F800303083160313AD00490884002D08831793
:1006080080000130AD002D08C907FF30C30703186B
:10061800C40AFF30C4074408803AFF0080307F02D4
:10062800031D182B0130430203181B2B1C2BFC2A1B
:10063800831603134B08803AFF0080307F02031DA6
:10064800272B09304A02031C2A2B2B2B322B08306C
:1006580083160313AD002D08CC00382B8316031323
:100668004A08AD002D08CC004C08AD00AE012D089D
:10067800CA022E08031CCB03CB024C080319452BD6
:10068800462B512B2E30AD00490884002D088317C6
:1006980080000130AD002D08C9074C080A128A15E0
:1006A8009D240A128A118312031346088316031322
:1006B800B50083120313450883160313B40083128D
:1006C8000313440883160313B30083120313430868
:1006D80083160313B200350883120313B000831680
:1006E8000313340883120313AF008316031333086C
:1006F80083120313AE008316031332088312031305
:10070800AD0083160313480883120313AC00831645
:100718000313470883120313AB0083160313460819
:1007280083120313AA0083160313450883120313C5
:10073800A9000A128A153C210A128A11831203138E
:100748002C08D9002B08D8002A08D7002908D60079
:100758000A168A15E0260A128A1183120313590809
:1007680083160313BA00831203135808831603135E
:10077800B90083120313570883160313B8008312B2
:100788000313560883160313B700CB2C4C08AD008F
:1007980001300310AD0DFF3E031DCD2B03102D0DB1
:1007A800693E84000A168A1500200A128A118312EB
:1007B8000313A0000A168A1500200A128A11A10044
:1007C8000A168A1500200A128A11A2000A168A152A
:1007D80000200A128A11A300831603133A08831211
:1007E8000313A70083160313390883120313A60003
:1007F80083160313380883120313A5008316031303
:10080800370883120313A4000A168A150F260A1242
:100818008A1183120313230883160313C200831259
:100828000313220883160313C1008312031321083C
:1008380083160313C00083120313200883160313BF
:10084800BF00003083120313A3000030A200003061
:10085800A1000A30A0008316031342088312031371
:10086800A70083160313410883120313A6008316F7
:100878000313400883120313A500831603133F08CC
:1008880083120313A4000A168A15B9250A128A11BD
:1008980083120313230883160313C200831203135E
:1008A800220883160313C100831203132108831639
:1008B8000313C00083120313200883160313BF0019
:1008C8003F08303EAD00490884002D08831780009A
:1008D8000130AD002D08C9074C08AD0001300310E8
:1008E800AD0DFF3E031D732C03102D0D693E8400D2
:1008F8000A168A1500200A128A1183120313A0000F
:100908000A168A1500200A128A11A1000A168A15E9
:1009180000200A128A11A2000A168A1500200A125B
:100928008A11A300831603133A0883120313A7003E
:1009380083160313390883120313A60083160313BF
:10094800380883120313A50083160313370883128C
:100958000313A4000A168A15B9250A128A118312EC
:100968000313230883160313BA0083120313220800
:1009780083160313B9008312031321088316031384
:10098800B80083120313200883160313B70001303D
:10099800CC024C0A031DD12CD22CCA2BE42C3030AB
:1009A800AD00490884002D08831780000130AD0090
:1009B8002D08C907FF30CA070318CB0AFF30CB0739
:1009C8004A084B04031DE92CEA2CD32CB02D4A0805
:1009D8004B04031DF02CF12CFF2C3A083904380481
:1009E8003704031DF82CF92CFF2C0130CA07031813
:1009F800CB0A0030CB074B08803A803C031D062DFC
:100A08004A084C020318092D0A2D112D83160313C9
:100A18004A08AD002D08CC00292D831603134B0876
:100A2800803AAD0080302D02031D1C2D4C084A026F
:100A380003181F2D202D292D831603134C08AD00F4
:100A4800AE012D08CA002E08CB00831603133D08FB
:100A58003E040319302D312D432D03303B05AD00E5
:100A680000303C05AE002D082E0403193C2D3D2D09
:100A7800432DFF30BD070318BE0AFF30BE073C1FD9
:100A8800462D472D622D4B08803AAD003E08803A2E
:100A98002D02031D512D3D084A020318542D552DD2
:100AA8005E2D831603134A08BD024B08031CBE03C0
:100AB800BE02622D83160313BD01BE013E08803AB3
:100AC800803C031D692D3D084C0203186C2D6D2DCB
:100AD800792D831603134C08AD00AE012D08BD0215
:100AE8002E08031CBE03BE027D2D83160313BD0111
:100AF800BE013D083E040319822D832D9A2D203016
:100B0800AD00490884002D08831780000130AD002E
:100B18002D08C907FF30BD070318BE0AFF30BE07FE
:100B28003D083E04031D992D9A2D832D03303B0566
:100B3800AD0000303C05AE002D082E040319A52D8C
:100B4800A62DB02D2D30AD00490884002D0883173F
:100B580080000A168A11132D0130A807FF302807D4
:100B680084000A168A1500200A128A11AD002D0881
:100B7800CC004C08031DC12DC42D0A168A11062D60
:100B88004908840083178001080083120313D600E4
:100B98006E305602031CD12DD22DE12E3F30AC0011
:100BA8000030AB000030AA000030A9006430A0007B
:100BB8000030A1005608C700C8014708A20048082D
:100BC800A3000A168A15D3240A128A118312031362
:100BD8002008C90001300310C90DFF3E031DEF2D89
:100BE8000310490D7D3E84000A168A1500200A125A
:100BF8008A11CA000A168A1500200A128A11CB0027
:100C08000A168A1500200A128A11CC000A168A15BB
:100C180000200A128A11CD004D08B0004C08AF0020
:100C28004B08AE004A08AD000A128A153C210A1288
:100C38008A11831203132C08D5002B08D4002A0824
:100C4800D3002908D2000A30A0000030A1005608BD
:100C5800C700C8014708F5004808F6006430F300EB
:100C68000030F4000A168A1101200A128A11740849
:100C780083120313A3007308A2000A168A15D3244B
:100C88000A128A11831203132008C90001300310C5
:100C9800C90DFF3E031D4B2E0310490D593E84001C
:100CA8000A168A1500200A128A11CA000A168A151D
:100CB80000200A128A11CB000A168A1500200A128F
:100CC8008A11CC000A168A1500200A128A11CD0052
:100CD8004D08AC004C08AB004B08AA004A08A90014
:100CE8005508B0005408AF005308AE005208AD00D4
:100CF8000A128A153C210A128A11831203132C083E
:100D0800D1002B08D0002A08CF002908CE000A30CD
:100D1800F3000030F4005608C700C8014708F50082
:100D28004808F6000A168A1101200A128A11730867
:100D380083120313C90001300310C90DFF3E031DC0
:100D4800A02E0310490D353E84000A168A1500208E
:100D58000A128A11CA000A168A1500200A128A1174
:100D6800CB000A168A1500200A128A11CC000A162E
:100D78008A1500200A128A11CD004D08AC004C08D3
:100D8800AB004B08AA004A08A9005108B000500857
:100D9800AF004F08AE004E08AD000A128A153C217C
:100DA8000A128A11831203132C08C6002B08C500E7
:100DB8002A08C4002908C300D52F0B305602031C8B
:100DC800E62EE72E922F3F30AC000030AB0000300B
:100DD800AA000030A9000A30A0000030A10056087F
:100DE800C700C8014708A2004808A3000A168A15C8
:100DF800D3240A128A11831203132008C900013070
:100E08000310C90DFF3E031D042F0310490D593E61
:100E180084000A168A1500200A128A11CA000A16C6
:100E28008A1500200A128A11CB000A168A1500209A
:100E38000A128A11CC000A168A1500200A128A1191
:100E4800CD004D08B0004C08AF004B08AE004A0872
:100E5800AD000A128A153C210A128A118312031363
:100E68002C08D5002B08D4002A08D3002908D20062
:100E78000A30F3000030F4005608C700C8014708DC
:100E8800F5004808F6000A168A1101200A128A118C
:100E9800730883120313C90001300310C90DFF3E04
:100EA800031D512F0310490D353E84000A168A157B
:100EB80000200A128A11CA000A168A1500200A128E
:100EC8008A11CB000A168A1500200A128A11CC0052
:100ED8000A168A1500200A128A11CD004D08AC00A6
:100EE8004C08AB004B08AA004A08A9005508B000F6
:100EF8005408AF005308AE005208AD000A128A1514
:100F08003C210A128A11831203132C08C6002B08ED
:100F1800C5002A08C4002908C300D52F3F30AC00FB
:100F28000030AB000030AA000030A9005608C70006
:100F380001300310C70DFF3E031D9D2F0310470D01
:100F4800353E84000A168A1500200A128A11C80044
:100F58000A168A1500200A128A11C9000A168A156B
:100F680000200A128A11CA000A168A1500200A12DD
:100F78008A11CB004B08B0004A08AF004908AE0000
:100F88004808AD000A128A153C210A128A118312F8
:100F980003132C08C6002B08C5002A08C40029081A
:100FA800C300080083120313A400A001A101730861
:100FB800F500F6017508A2007608A300241CE52FA9
:100FC800E62FEC2F2208A0070318A10A2308A1077F
:100FD80001300310A20DA30DFF3E031DED2F0310DA
:100FE800A40C2408031DF92FFA2FE22F2108F4007E
:060FF8002008F3000800D0
:10100600760875047404730403190A280B280D283E
:101016008030F6060800F901F61F122813281A2850
:10102600F509F609F50A0319F60AF901F90AF41F92
:101036001D281E282328F309F409F30A0319F40AC4
:10104600730874040319282829285828F801F80A6F
:10105600372801300310F30DF40DFF3E031D2D2834
:101066000130F7007708F807F41F3A283B282C28A8
:1010760074087602031D412873087502031C442870
:1010860045284B287308F5027408031CF603F6027C
:1010960001300310F40CF30CFF3E031D4C28013005
:1010A600F802031D572858283B28790803195C289D
:1010B6005D286228F509F609F50A0319F60A760885
:1010C600F4007508F30008000A168A1597240A1218
:1010D6008A15831203130711033083120313EC00DE
:1010E6009730EB00EB0B7528EC0B75288312031376
:1010F6006F080A168A15EE230A128A15831203133D
:101106006F08031D87288828AE28EF01EF0A0A1604
:101116008A1503240A128A1583120313EB00EC01C5
:10112600ED01EE016E08F6006D08F5006C08F4009E
:101136006B08F30000300A168A113B200A128A1542
:10114600760883160313D4007508D3007408D200FA
:101156007308D100D7286F03031DB228B328D728F8
:10116600EF010A168A1503240A128A15831203133D
:10117600EB00EC01ED01EE016E08F6006D08F500DE
:101186006C08F4006B08F30000300A168A113B2045
:101196000A128A15760883160313D0007508CF0045
:1011A6007408CE007308CD00033083120313EC00DD
:1011B6009730EB00EB0BDD28EC0BDD2883120313D5
:1011C60007150B3083120313ED002630EC005D305B
:1011D600EB00EB0BEC28EC0BEC28ED0BEC2891303C
:1011E60083120313EB006B0883160313A80054083D
:1011F600AC005308AB005208AA005108A900903071
:101206000A168A11FC240A128A15A33083120313C4
:10121600EB006B0883160313A8005008AC004F08B8
:10122600AB004E08AA004D08A90010300A168A1114
:10123600FC240A128A1590300A168A1551240A12BD
:101246008A150D3083120313990010300A168A1579
:1012560051240A128A150D3083120313990083163E
:10126600031355088312031388006C280A128A1187
:101276000C28831203132C088039B1003108B600FC
:101286002C08B1003107B2003208BC00AB1F4C2954
:101296004D294E293C143C08031952295329622929
:1012A6003C0A031D5729582960290030AC0000303C
:1012B600AB000030AA000030A900AB176A29003045
:1012C600AC000030AB000030AA000030A9003008A6
:1012D6008039B1003108B6063008B1003107B200D6
:1012E6003208BB00AF1F782979297A293B143B08BD
:1012F60003197E297F298E293B0A031D8329842908
:101306008C290030B0000030AF000030AE00003055
:10131600AD00AF1796290030B0000030AF000030A6
:10132600AE000030AD003B0803199A299B29A0297D
:101336003C08031D9F29A029A9290030AC000030D4
:10134600AB000030AA000030A9009C2C2908B1008F
:101356003108F3002F080A128A11D6270A128A15B5
:10136600740883120313C2007308C1004108B10058
:10137600B201B301B4013408BA003308B900320827
:10138600B8003108B7004208B100B201B301B40198
:101396003408C0003308BF003208BE003108BD0063
:1013A6002A08B1003108F3002E080A128A11D6273E
:1013B6000A128A15740883120313C2007308C10047
:1013C6004108B100B201B301B4013108B7073208D0
:1013D60003110318013E0319F129B8073308031155
:1013E6000318013E0319F829B90734080311031835
:1013F600013E0319FF29BA074208B100B201B30141
:10140600B4013108BD07320803110318013E031960
:101416000D2ABE07330803110318013E0319142AC7
:10142600BF07340803110318013E03191B2AC0071E
:101436002B08B1003108F3002D080A128A11D627AD
:101446000A128A15740883120313C2007308C100B6
:101456004108B100B201B301B4013108B70732083F
:1014660003110318013E0319392AB807330803117B
:101476000318013E0319402AB9073408031103185B
:10148600013E0319472ABA074208B100B201B30167
:10149600B4013108BD07320803110318013E0319D0
:1014A600552ABE07330803110318013E03195C2AA7
:1014B600BF07340803110318013E0319632AC00746
:1014C6000830B1000310B70DB80DB90DBA0DB10B48
:1014D600652A2A08B1003108F3002D080A128A117C
:1014E600D6270A128A15740883120313C2007308DA
:1014F600C1004108B1004208B200B301B40131088D
:10150600B707320803110318013E03198B2AB807DF
:10151600330803110318013E0319922AB907340848
:1015260003110318013E0319992ABA072908B100C5
:101536003108F3002E080A128A11D6270A128A15D4
:10154600740883120313C2007308C1004108B10076
:101556004208B200B301B4013108B70732080311DB
:101566000318013E0319B82AB807330803110318F4
:10157600013E0319BF2AB907340803110318013EB7
:101586000319C62ABA070830B1000310B70DB80D03
:10159600B90DBA0DB10BC82A2908B1003108F300FC
:1015A6002D080A128A11D6270A128A157408831280
:1015B6000313C2007308C1004108B1004208B2001B
:1015C600B301B4013108B707320803110318013E0D
:1015D6000319EE2AB807330803110318013E03194D
:1015E600F52AB907340803110318013E0319FC2A2A
:1015F600BA072A08B1003108F3002F080A128A1127
:10160600D6270A128A15740883120313C2007308B8
:10161600C1004108B1004208B200B301B40131086B
:10162600BD07320803110318013E03191B2BBE0721
:10163600330803110318013E0319222BBF07340890
:1016460003110318013E0319292BC0072B08B1000B
:101656003108F3002E080A128A11D6270A128A15B3
:10166600740883120313C2007308C1004108B10055
:101676004208B200B301B4013108BD0732080311B4
:101686000318013E0319482BBE073308031103183C
:10169600013E03194F2BBF07340803110318013EFF
:1016A6000319562BC0072B08B1003108F3002F0889
:1016B6000A128A11D6270A128A157408831203138E
:1016C600C2007308C1004108B1004208B200B3016C
:1016D600B40108300310B10DB20DB30DB40DFF3EC9
:1016E600031D6D2B3108BD07320803110318013E97
:1016F60003197E2BBE07330803110318013E031995
:10170600852BBF07340803110318013E03198C2BE0
:10171600C0073708B1003808B2003908B3003A08E4
:10172600B40018300310B40CB30CB20CB10CFF3E6D
:10173600031D952B3108BD07320803110318013E1E
:101746000319A62BBE07330803110318013E03191C
:10175600AD2BBF07340803110318013E0319B42B40
:10176600C0070830B1000310B70DB80DB90DBA0D9A
:10177600B10BB62B3C083B07B100B201B20D3108E4
:10178600823EC10032080318013EFF3EC200E82B2C
:101796000130B1000310BD0DBE0DBF0DC00DB10B64
:1017A600CD2BBA1FD72BD82BD92B3D140130B10026
:1017B6000310B70DB80DB90DBA0DB10BDB2BFF3009
:1017C600C1070318C20AFF30C207BF1FEB2BEC2B61
:1017D600CB2BBB01BA1FF02BF12B0D2CFF3037059D
:1017E600B100FF303805B200FF303905B3007F3055
:1017F6003A05B40034083304320431040319042CC6
:10180600052C082CBB01BB0A0D2C3D1C0B2C0C2CEB
:101816000D2C052C3B080319112C122C432C0130DE
:10182600BD07003003180130BE0700300318013031
:10183600BF07003003180130C007401C232C242C9E
:10184600432C3D08B1003E08B2003F08B3004008F3
:10185600B4000130B500340DB40CB30CB20CB10CAD
:10186600B50B2E2C3408C0003308BF003208BE006A
:101876003108BD000130C1070318C20A0030C20793
:101886004208803AFF0080307F02031D4C2CFF3057
:101896004102031C4F2C502C5B2C7F308312031308
:1018A600C0008030BF000030BE000030BD00902C6C
:1018B600831203134208803AFF0080307F02031D23
:1018C600662C013041020318692C6A2C762C0030F4
:1018D60083120313C0000030BF000030BE0000308A
:1018E600BD00B601902C831203134108B1003108E4
:1018F600BC00FF30BD05FF30BE057F30BF050030A0
:10190600C0053C1C872C882C892CBF173C08B100CD
:101916000310310CB2003208C0003608B10031089D
:10192600C0044008AC003F08AB003E08AA003D08D2
:10193600A900080083120313D500D51FA32CA42CDD
:10194600532ED509D50A5508803A123E031CAC2CF5
:10195600AD2C972D0A30A0000030A1005508F500E7
:10196600F601F51BF6036430F3000030F4000A12AA
:101976008A150E200A128A15740883120313A3000F
:101986007308A2000A168A1577260A128A15831288
:1019960003132008C70001300310C70DFF3E031DC7
:1019A600CF2C0310470D593E84000A168A150020D5
:1019B6000A128A15C8000A168A1500200A128A1504
:1019C600C9000A168A1500200A128A15CA000A16C4
:1019D6008A1500200A128A15CB004B08AC004A086B
:1019E600AB004908AA004808A9006430A0000030EE
:1019F600A1005508A200A301A21BA3030A168A157B
:101A060077260A128A15831203132008CC000130A8
:101A16000310CC0DFF3E031D0B2D03104C0D7D3E18
:101A260084000A168A1500200A128A15CD000A16A5
:101A36008A1500200A128A15CE000A168A15002079
:101A46000A128A15CF000A168A1500200A128A156C
:101A5600D0005008B0004F08AF004E08AE004D0849
:101A6600AD000A128A153C210A128A158312031345
:101A76002C08D4002B08D3002A08D2002908D1004C
:101A86000A30F3000030F4005508F500F601F51BA6
:101A9600F6030A128A150E200A128A157308831293
:101AA6000313C70001300310C70DFF3E031D562D5B
:101AB6000310470D353E84000A168A1500200A12C7
:101AC6008A15C8000A168A1500200A128A15C90046
:101AD6000A168A1500200A128A15CA000A168A15DD
:101AE60000200A128A15CB004B08AC004A08AB004E
:101AF6004908AA004808A9005408B0005308AF00D6
:101B06005208AE005108AD000A128A153C210A128D
:101B16008A15831203132C08C6002B08C5002A0851
:101B2600C4002908C300FF2F5508803A753E031CE0
:101B36009D2D9E2D262E0A30F3000030F400550808
:101B4600F500F601F51BF6030A128A150E200A1295
:101B56008A15730883120313C70001300310C70DDB
:101B6600FF3E031DB12D0310470D353E84000A16B6
:101B76008A1500200A128A15C8000A168A1500203E
:101B86000A128A15C9000A168A1500200A128A1531
:101B9600CA000A168A1500200A128A15CB004B08BD
:101BA600AC004A08AB004908AA004808A9000A3058
:101BB600A0000030A1005508A200A301A21BA303A8
:101BC6000A168A1577260A128A1583120313200825
:101BD600CC0001300310CC0DFF3E031DED2D03108C
:101BE6004C0D593E84000A168A1500200A128A15E1
:101BF600CD000A168A1500200A128A15CE000A168A
:101C06008A1500200A128A15CF000A168A150020A6
:101C16000A128A15D0005008B0004F08AF004E08CF
:101C2600AE004D08AD000A128A153C210A128A152B
:101C3600831203132C08C6002B08C5002A08C4000B
:101C46002908C300FF2F5508C70001300310C70D30
:101C5600FF3E031D292E0310470D353E84000A164C
:101C66008A1500200A128A15C8000A168A1500204D
:101C76000A128A15C9000A168A1500200A128A1540
:101C8600CA000A168A1500200A128A15CB004B08CC
:101C9600C6004A08C5004908C4004808C300FF2F0B
:101CA6005508803A123E031C592E5A2E442F0A30EC
:101CB600A0000030A1005508F500F601F51BF6035B
:101CC6006430F3000030F4000A128A150E200A125E
:101CD6008A15740883120313A3007308A2000A1658
:101CE6008A1577260A128A15831203132008C7005D
:101CF60001300310C70DFF3E031D7C2E0310470D58
:101D0600253E84000A168A1500200A128A15C80084
:101D16000A168A1500200A128A15C9000A168A159B
:101D260000200A128A15CA000A168A1500200A120D
:101D36008A15CB004B08AC004A08AB004908AA003C
:101D46004808A9006430A0000030A1005508A20090
:101D5600A301A21BA3030A168A1577260A128A155F
:101D6600831203132008CC0001300310CC0DFF3E74
:101D7600031DB82E03104C0D493E84000A168A1521
:101D860000200A128A15CD000A168A1500200A12AA
:101D96008A15CE000A168A1500200A128A15CF0067
:101DA6000A168A1500200A128A15D0005008B000BB
:101DB6004F08AF004E08AE004D08AD000A128A1556
:101DC6003C210A128A15831203132C08D4002B080F
:101DD600D3002A08D2002908D1000A30F3000030C7
:101DE600F4005508F500F601F51BF6030A128A15EC
:101DF6000E200A128A15730883120313C7000130D6
:101E06000310C70DFF3E031D032F0310470D013EB0
:101E160084000A168A1500200A128A15C8000A16B6
:101E26008A1500200A128A15C9000A168A1500208A
:101E36000A128A15CA000A168A1500200A128A157D
:101E4600CB004B08AC004A08AB004908AA0048087A
:101E5600A9005408B0005308AF005208AE0051085C
:101E6600AD000A128A153C210A128A158312031341
:101E76002C08C6002B08C5002A08C4002908C30080
:101E8600FF2F5508803A753E031C4A2F4B2FD32F40
:101E96000A30F3000030F4005508F500F601F51B92
:101EA600F6030A128A150E200A128A15730883127F
:101EB6000313C70001300310C70DFF3E031D5E2F3D
:101EC6000310470D013E84000A168A1500200A12E7
:101ED6008A15C8000A168A1500200A128A15C90032
:101EE6000A168A1500200A128A15CA000A168A15C9
:101EF60000200A128A15CB004B08AC004A08AB003A
:101F06004908AA004808A9000A30A0000030A1002C
:101F16005508A200A301A21BA3030A168A15772659
:101F26000A128A15831203132008CC00013003100D
:101F3600CC0DFF3E031D9A2F03104C0D253E840049
:101F46000A168A1500200A128A15CD000A168A1565
:101F560000200A128A15CE000A168A1500200A12D7
:101F66008A15CF000A168A1500200A128A15D00093
:101F76005008B0004F08AF004E08AE004D08AD0047
:101F86000A128A153C210A128A15831203132C0899
:101F9600C6002B08C5002A08C4002908C300FF2F65
:101FA6005508C70001300310C70DFF3E031DD62F8D
:101FB6000310470D013E84000A168A1500200A12F6
:101FC6008A15C8000A168A1500200A128A15C90041
:101FD6000A168A1500200A128A15CA000A168A15D8
:101FE60000200A128A15CB004B08C6004A08C50015
:0A1FF6004908C4004808C3000800B1
:10200200730874040319062807283628F801F80A09
:10201200152801300310F30DF40DFF3E031D0B28AC
:102022000130F7007708F807F41F182819280A2842
:1020320074087602031D1F2873087502031C2228E8
:10204200232829287308F5027408031CF603F602F4
:1020520001300310F40CF30CFF3E031D2A2801305B
:10206200F802031D3528362819287608F400750869
:10207200F300080083120313A40024080319422862
:1020820043285728F61F4628472857287309A600D1
:102092007409A7007509A8007609A900A60A031900
:1020A200A70A0319A80A0319A90A5F287608A90032
:1020B2007508A8007408A7007308A60076087504BE
:1020C20074047304031D6628672870280030F60024
:1020D2000030F5000030F4000030F300F6289630AE
:1020E200A0002008A50082280130A0002008A50732
:1020F20001300310A90CA80CA70CA60CFF3E031D6F
:102102007A28FE302905031D872888287528A428E7
:102112000130A0002008A5070130A60700300318EF
:102122000130A707003003180130A8070030031858
:102132000130A90701300310A90CA80CA70CA60CAA
:10214200FF3E031D9C28FF302905031DA928AA284C
:102152008928B6280130A5020130A0000310A60D7F
:10216200A70DA80DA90DA00BAF28A81BB928BA2846
:10217200C028023025020318BF28C028AB28251822
:10218200C328C428CC28FF30A605FF30A7057F301E
:10219200A805FF30A9050310A50C2508A000A10180
:1021A200A201A30118300310A00DA10DA20DA30DD1
:1021B200FF3E031DD4282008A6042108A7042208F4
:1021C200A8042308A90424080319E828E928EE280A
:1021D200F61FEC28ED28EE28A9172908F600280892
:1021E200F5002708F4002608F30008008312031301
:1021F2002008F3002108F4002208F5000310740DF2
:10220200750DF6007608AD002D08031D09290A296F
:1022120013290030A3000030A2000030A1000030DA
:10222200A000B3292408F3002508F4002608F500CD
:102232000310740D750DF6007608AC002C08031D12
:102242002329242925290A29A117FF30A005FF30B7
:10225200A1050030A205A517FF30A405FF30A50592
:102262000030A6050030AB000030AA000030A90003
:102272000030A8007F30AD0298302C07F3007308BD
:10228200AD021830F3007308AC000130F300031004
:10229200A80DA90DAA0DAB0DF30B482926082202A1
:1022A200031D592925082102031D5929240820024A
:1022B200031C5C295D2968292408A0022508031C47
:1022C200250FA1022608031C260AA20228140130A7
:1022D2000310A00DA10DA20DFF3E031D69290130BF
:1022E200AC02031D752976294629AD1F79297A2961
:1022F20094292D08803A973E031880298129822942
:102302000A2901300310AB0CAA0CA90CA80CFF3E41
:10231200031D83290130F3007308AD07031D9229C1
:1023220093298229AB2918302D02031C99299A2955
:10233200A6290A290130F3000310A80DA90DAA0D40
:10234200AB0DF30B9D290130AD022D08031DAA2907
:10235200AB299B292B08A3002A08A2002908A10067
:102362002808A0000800031083120313220D230D76
:10237200F3007308F9007908031DC029C129CA298D
:102382000030A3000030A2000030A1000030A00005
:10239200732A0310260D270DF3007308F80078083E
:1023A200031DD429D529D629C129A217FF30A0059A
:1023B200FF30A105FF30A2050030A305A617FF30AC
:1023C200A405FF30A505FF30A6050030A7050030A3
:1023D200F7000030F6000030F5000030F4007F30E6
:1023E200F902A0307807F3007308F9022030F300F5
:1023F2007308F8000130F3000310F40DF50DF60D2B
:10240200F70DF30BFD2927082302031D122A2608C4
:102412002202031D122A25082102031D122A240862
:102422002002031C152A162A252A2408A0022508A0
:10243200031C250FA1022608031C260FA20227084F
:10244200031C270FA30274140130F3000310A00D24
:10245200A10DA20DA30DF30B272A0130F802031DD3
:10246200332A342AFB29F91F372A382A522A7908B3
:10247200803A9F3E03183E2A3F2A402AC129013052
:102482000310F70CF60CF50CF40CFF3E031D412A69
:102492000130F3007308F907031D502A512A402A1C
:1024A200692A20307902031C572A582A642AC12932
:1024B2000130F3000310F40DF50DF60DF70DF30BDB
:1024C2005B2A0130F9027908031D682A692A592A10
:1024D200770883120313A3007608A2007508A100EF
:1024E2007408A0000800831203135A088039DF0021
:1024F2005F08E7005A08DF005F07E0006008E900B4
:10250200D91F842A852A862A6914690803198A2A06
:102512008B2A9B2A690A031D8F2A902A982A003047
:10252200DA000030D9000030D8000030D700D917C7
:10253200DA01A32A0030DA000030D9000030D800D6
:102542000030D7005E088039DF005F08E8006808C5
:1025520067060319AD2AAE2AAF2A67175E08DF00A5
:102562005F07E0006008E800DD1FB82AB92ABA2A2E
:10257200681468080319BE2ABF2ACF2A680A031DF5
:10258200C32AC42ACC2A0030DE000030DD0000302D
:10259200DC000030DB00DD17DE01D72A0030DE0070
:1025A2000030DD000030DC000030DB00690868022A
:1025B2000318DC2ADD2A212B671FE02AE12AE52AFB
:1025C2008030DF005F08E7066908DF005F08EA0085
:1025D2006808DF005F08E9006A08DF005F08E800BA
:1025E2005708DF005F08EA005B08DF005F08D700DA
:1025F2006A08DF005F08DB005808DF005F08EA00B6
:102602005C08DF005F08D8006A08DF005F08DC00B2
:102612005908DF005F08EA005D08DF005F08D900A3
:102622006A08DF005F08DD005A08DF005F08EA0081
:102632005E08DF005F08DA006A08DF005F08DE007C
:10264200EA016808DF00E0016008E20069085F0251
:10265200E100031CE2036208803AFF0080307F023F
:10266200031D352B1A306102031C382B392B762BB4
:10267200831203135A08590458045704031D422BAA
:10268200442B0130452B0030DF005F08EA000030A8
:10269200DA000030D9000030D8000030D7006808D6
:1026A200DF005F08E9007E2B6A1C582B592B622B36
:1026B2006A08DF0003105F0C0138E0006008EA00DE
:1026C200642B0310EA0C571C672B682B692BEA1743
:1026D2000130DF005A0DDA0CD90CD80CD70CDF0B05
:1026E2006B2B0130DF005F08E907831203136808D0
:1026F2006902031C7D2B7E2B552B671B812B822BA2
:10270200CD2B6908031D862B872B902B0030DA0016
:102712000030D9000030D8000030D700FB2C5B0815
:10272200D7075C0803110318013E0319992BD80738
:102732005D0803110318013E0319A02BD9075E0897
:1027420003110318013E0319A72BDA075A1CAA2BFF
:10275200AB2B812C6A1CAE2BAF2BB82B6A08DF0087
:1027620003105F0C0138E0006008EA00BA2B031086
:10277200EA0C571CBD2BBE2BBF2BEA170130DF0022
:102782005A0DDA0CD90CD80CD70CDF0BC12B013047
:10279200DF005F08E907812C5A08803AFF005E08D3
:1027A200803A7F02031DDF2B5D085902031DDF2BD8
:1027B2005C085802031DDF2B5B0857020318E22B4B
:1027C200E32B3B2CFF30DF00FF30E000FF30E10065
:1027D200FF30E2005B08E3005C08E4005D08E5000E
:1027E2005E08E6005708E3025808031C580FFA2B4C
:1027F200FB2BE4025908031C590F002C012CE502A3
:102802005A08031C5A0F062C072CE6026308DF073E
:1028120064080318640F0E2C0F2CE00765080318D8
:10282200650F142C152CE10766080318660AE207E7
:102832006208DA006108D9006008D8005F08D70092
:102842008030DF005F08E706EA09EA0A6A08031D2A
:102852002B2C2C2C492C0130D707003003180130C7
:10286200D807003003180130D907003003180130AF
:10287200DA07492C5B08D7025C08031C5C0FD802FC
:102882005D08031C5D0FD9025E08031C5E0FDA02AD
:102892005A08590458045704031D502C512C7D2CFE
:1028A2006A08031D552C562C7D2C0030DA000030AE
:1028B200D9000030D8000030D700FB2C0130DF00F7
:1028C2000310D70DD80DD90DDA0DDF0B612CEA1FDD
:1028D2006B2C6C2C6D2C57146A1C702C712C742C64
:1028E2000314EA0D762C0310EA0D690803197A2CF9
:1028F2007B2C7D2C0130E902D91F802C812C5F2C8E
:10290200E801EA1F852C862C942C6A087F3903196A
:102912008B2C8C2C8F2CE801E80A942C571C922CBF
:10292200932C942C8C2C68080319982C992CCD2C60
:102932000130D707003003180130D80700300318E0
:102942000130D907003003180130DA075A1CAA2CCB
:10295200AB2CCD2C5708DF005808E0005908E100E5
:102962005A08E2000130E300620DE20CE10CE00CD7
:10297200DF0CE30BB52C6208DA006108D9006008AD
:10298200D8005F08D700690A0319C82CC92CCD2CBE
:102992000130DF005F08E907690A0319D12CD22C44
:1029A200D72C6908031DD62CD72CE52C0030DA0071
:1029B2000030D9000030D8000030D7006908031D6C
:1029C200E32CE42CE52CE701691CE82CE92CEB2C28
:1029D200D917EF2C7F30DF005F08D9056908DF00C7
:1029E20003105F0CE0006008DA00E71FF92CFA2CF4
:1029F200FB2CDA17080083160313C900A930AD00B7
:102A02002D08B6000A128A11B02D25304C06031982
:102A12000B2D0C2D182D4C08AD00490884002D08F3
:102A2200831780000130AD002D08C907032DBD01B9
:102A3200BE01BB01BC01280884000A168A150020C9
:102A42000A168A110A168A1516240A168A11031CF6
:102A52002B2D2C2D6C2D83160313BD01BE010A30C4
:102A6200F3000030F400831603133E08F6003D081D
:102A7200F5000A168A1572240A168A11740883163A
:102A82000313BE007308BD00280884000A168A15C5
:102A920000200A168A11D03EAD00FF300318003024
:102AA200AE002D08BD070318BE0A2E08BE0701306E
:102AB200AD002D08A807280884000A168A150020F0
:102AC2000A168A110A168A1516240A168A1103187A
:102AD2006B2D6C2D302D83160313280884000A16E3
:102AE2008A1500200A168A112E3A031D792D7A2D95
:102AF200BF2D3C170130AD002D08A807CA01CB013C
:102B0200AE2D0A30F3000030F400831603134B0895
:102B1200F6004A08F5000A168A1572240A168A1166
:102B2200740883160313CB007308CA0028088400B4
:102B32000A168A1500200A168A11D03EAD00FF300F
:102B420003180030AE002D08CA070318CB0A2E085E
:102B5200CB070130AD002D08A807280884000A160B
:102B62008A1500200A168A110A168A1516240A16D0
:102B72008A110318BD2DBE2D822DC52DCA01CB0190
:102B82003C16C52D3C15E12D013083160313A80711
:102B9200FF30280784000A168A1500200A168A11B7
:102BA200CC00AD00AE012E08003A0319D92D032D39
:102BB2002D08003A0319FD2F663A0319C32D032D80
:102BC20000303B05AD0007303C05AE002D082E0459
:102BD2000319EC2DEF2D0A128A11EB2C3C1EF22D5B
:102BE200F32DF72D0630CA000030CB0036088400E2
:102BF20083130008C500840A0008C600840A00087E
:102C0200C700840A0008C8000430AD002D08B607CA
:102C1200480883120313A300831603134708831281
:102C22000313A20083160313460883120313A100A1
:102C320083160313450883120313A0000030A70074
:102C42000030A6000030A5000030A4000A168A1544
:102C52005C270A168A1103182F2E302E4D2E83164A
:102C620003134808F6004708F5004608F400450833
:102C7200F3000A128A1503200A168A1176088316AF
:102C82000313C8007508C7007408C6007308C5009E
:102C92000330BB040030BC0483160313C301C40118
:102CA200480883120313A3008316031347088312F1
:102CB2000313A20083160313460883120313A10011
:102CC20083160313450883120313A0000030A700E4
:102CD2000030A6000030A5000030A4000A168A15B4
:102CE20019250A168A110318772E782E942F0310AD
:102CF20083160313470D480D823EC300FF300318AD
:102D02000030C400FF30C3070318C40AFF30C407F1
:102D12000330F3000030F4004408F6004308F500E5
:102D22000A168A1572240A168A1174088316031366
:102D3200C4007308C3000A3083120313A0000030DA
:102D4200A10083160313440883120313A3008316FE
:102D52000313430883120313A2000A168A15772667
:102D62000A168A1183120313210883160313C4005F
:102D720083120313200883160313C300C41FC22E39
:102D8200C32EC92EFF30C3070318C40AFF30C4077D
:102D92004303FF3A0A128A159D240A168A118312E6
:102DA2000313460883160313C20083120313450854
:102DB20083160313C10083120313440883160313FB
:102DC200C00083120313430883160313BF0048088D
:102DD20083120313AC0083160313470883120313F1
:102DE200AB0083160313460883120313AA0083164B
:102DF2000313450883120313A90083160313420821
:102E020083120313B00083160313410883120313C2
:102E1200AF0083160313400883120313AE00831618
:102E220003133F0883120313AD000A128A153C21D3
:102E32000A168A11831203132C0883160313C20085
:102E4200831203132B0883160313C1008312031387
:102E52002A0883160313C00083120313290883165A
:102E62000313BF00420883120313A3008316031344
:102E7200410883120313A20083160313400883122E
:102E82000313A100831603133F0883120313A00048
:102E92003F30A7008030A6000030A5000030A4001B
:102EA2000A168A155C270A168A110318592F5A2FF7
:102EB200632FFF3083160313C3070318C40AFF30BE
:102EC200C407942F83160313420883120313A3002B
:102ED20083160313410883120313A20083160313FC
:102EE200400883120313A100831603133F088312C1
:102EF2000313A0004130A7002030A6000030A50037
:102F02000030A4000A168A155C270A168A11031CCF
:102F12008B2F8C2F942F013083160313C3070318B2
:102F2200C40A0030C407831603134B08803AFF001B
:102F320080307F02031D9F2F0D304A020318A22FFB
:102F4200A32FEA2F831603134A080A128A11C925EE
:102F52000A168A11831203134608DA004508D900BB
:102F62004408D8004308D700831603134808831285
:102F72000313DE0083160313470883120313DD00D5
:102F820083160313460883120313DC00831603130C
:102F9200450883120313DB000A168A1174220A16EB
:102FA2008A11831203135A0883160313C80083126B
:102FB2000313590883160313C70083120313580817
:102FC20083160313C60083120313570883160313D1
:102FD200C500831603134408803AFF0080307F0245
:102FE200031DF52F0A3043020318FA2F0A128A1121
:102FF20031280A128A1190280A128A11C42D183017
:103002008A000408840A82070034003400348034C1
:103012003F34003400342034413400340034C834A6
:103022004234003400347A344434003440341C34A2
:10303200463400345034C3344734003424347434B6
:1030420049348034963418344B342034BC34BE3482
:103052004C3428346B346E344E34F9340234153423
:103062005034EC347834AD346034CA34F2344934F8
:1030720071340034003480343F34CD34CC34CC3419
:103082003D340A34D73423343C346F34123483341D
:103092003A341734B734D1343834AC34C5342734E5
:1030A2003734BD343734863435349534BF34D6346E
:1030B20033347734CC342B3432345F347034893443
:1030C2003034FF34E634DB342E340834E5343C3417
:1030D2001E3460344234A2340D34013400340034DE
:1030E20000340A34003400340034643400340034D0
:1030F2000034E8340334003400341034273400340C
:103102000034A034863401340034403442340F3465
:10311200003480349634983400340034E134F53489
:1031220005340034CA349A343B3450346F34743426
:1031320031343A342034253433342E343034663446
:10314200203462346934743473342034003450349B
:103152006F34743432343A342034253433342E34D8
:103162003034663420346234693474347334203435
:02317200003427
:1037DC00F30073088312031393000800831603137A
:1037EC00141CF92BFA2BF42B080064008001840ABA
:1037FC000406031900340406FC2B0A168A15F4235C
:10380C000A168A158312031313080800F300831297
:10381C0003130C1E122C132C0D2C7308990008008A
:10382C00F400F3013A30740203181D2C1E2C262CC4
:10383C0030307402031C232C242C262CF301F30AA5
:10384C00730C0800831203138C1E2D2C2E2C342C7D
:10385C001A08F000700883160313D50072088A004A
:10386C00710E8300FE0E7E0E0900F6008316031304
:10387C008712761D422C432C472C75089400871513
:10388C004B2C73087504940087117608740483120A
:10389C00031394000800F700F501F601662C750877
:1038AC007707F4007408840000080A168A150C24A3
:1038BC000A168A150130F5070318F60A0030F607C8
:1038CC0075087707F4007408840083170008031D3B
:1038DC00702C712C552C0800F701F801731C772CF7
:1038EC00782C7E2C7508F7070318F80A7608F80769
:1038FC0001300310F50DF60DFF3E031D7F2C01303A
:10390C000310F40CF30CFF3E031D862C7308740497
:10391C00031D912C922C742C7808F4007708F3007A
:10392C0008008316031788018901831603130711F6
:10393C008601880183120313860188018316031301
:10394C000F178F160F160F148312031307158316F8
:10395C00031318121815831603178715CF30831607
:10396C00031399009A01831203139817181318164E
:10397C00831603139816F301F401F50120300A168F
:10398C008A153B240A168A15831203138C1283168C
:10399C0003138C160B178B17080083120313A40147
:1039AC00A501200821040319DC2CDD2C142DA60103
:1039BC00A60AEB2C01300310A00DA10DFF3E031D38
:1039CC00E12C0130F9007908A607A11FEE2CEF2C91
:1039DC00E02C01300310A40DA50DFF3E031DF02CAF
:1039EC0021082302031DFC2C20082202031CFF2C9F
:1039FC00002D072D2008A2022108031CA303A302FB
:103A0C00241401300310A10CA00CFF3E031D082D43
:103A1C000130A602031D132D142DEF2C2508A10037
:103A2C002408A00008000030831203132005F300C3
:103A3C0000302105F40080302205F5007F3023058D
:103A4C00F6007608750474047304031D2E2D2F2DB7
:103A5C00372D0030A3000030A2000030A100003050
:103A6C00A00000302405F30000302505F400803060
:103A7C002605F5007F302705F600760875047404DA
:103A8C007304031D4A2D4B2D532D0030A70000301D
:103A9C00A6000030A5000030A40027082306031D53
:103AAC00612D26082206031D612D25082106031D04
:103ABC00612D240820060319642D652D672D031034
:103ACC00682D03140800803083160313A3062708FF
:103ADC0083120313DA0083160313260883120313CD
:103AEC00D90083160313250883120313D8008316F9
:103AFC000313240883120313D7008316031323081C
:103B0C0083120313DE00831603132208831203139C
:103B1C00DD0083160313210883120313DC008316C4
:103B2C000313200883120313DB000A168A11742274
:103B3C000A168A15831203135A0883160313A3005B
:103B4C0083120313590883160313A2008312031361
:103B5C00580883160313A100831203135708831606
:103B6C000313A0000800831203132308220421046A
:103B7C0020040319C22DC32D062EF401F40AD32DF3
:103B8C000130F3000310A00DA10DA20DA30DF30B3A
:103B9C00C82D0130F3007308F407A31FD62DD72DC1
:103BAC00C62D23082702031DE52D22082602031D1E
:103BBC00E52D21082502031DE52D20082402031CF8
:103BCC00E82DE92DF72D2008A4022108031C210F54
:103BDC00A5022208031C220FA6022308031C230F94
:103BEC00A70201300310A30CA20CA10CA00CFF3EE9
:103BFC00031DF82D0130F402031D052E062ED72DC2
:103C0C002708A3002608A2002508A1002408A0006C
:103C1C0008000030F7000030F6000030F5000030EE
:103C2C00F400831203132308220421042004031933
:103C3C00202E212E6E2EF801F80A312E0130F300C1
:103C4C000310A00DA10DA20DA30DF30B262E013018
:103C5C00F3007308F807A31F342E352E242E0130E1
:103C6C00F3000310F40DF50DF60DF70DF30B372ED5
:103C7C0023082702031D4C2E22082602031D4C2E5E
:103C8C0021082502031D4C2E20082402031C4F2E54
:103C9C00502E5F2E2008A4022108031C210FA50220
:103CAC002208031C220FA6022308031C230FA702C1
:103CBC00741401300310A30CA20CA10CA00CFF3E39
:103CCC00031D602E0130F802031D6D2E6E2E352E55
:103CDC007708A3007608A2007508A1007408A0005C
:103CEC00080083120313A601A11F7D2E7E2E852EA4
:103CFC00A009A109A00A0319A10AA601A60AA31FDB
:103D0C00882E892E922EA209A309A20A0319A30AAE
:103D1C000130A4002408A606A701A801200821044C
:103D2C000319992E9A2ED12EA501A50AA82E013081
:103D3C000310A00DA10DFF3E031D9E2E0130A4000B
:103D4C002408A507A11FAB2EAC2E9D2E013003100D
:103D5C00A70DA80DFF3E031DAD2E21082302031D48
:103D6C00B92E20082202031CBC2EBD2EC42E200806
:103D7C00A2022108031CA303A30227140130031081
:103D8C00A10CA00CFF3E031DC52E0130A502031D86
:103D9C00D02ED12EAC2E26080319D52ED62EDB2EE6
:103DAC00A709A809A70A0319A80A2808A100270827
:103DBC00A0000800031083120313580D590DDA00EC
:103DCC005A08E0006008031DEC2EED2EF62E003094
:103DDC00D9000030D8000030D7000030D6005B2F5F
:103DEC005608DA005708DB005808DC005908DD00DB
:103DFC001F300310DD0CDC0CDB0CDA0CFF3E031D5A
:103E0C00FF2E5A08DE005E08DF00D817FF30D605FB
:103E1C00FF30D705FF30D8050030D9059630E002C9
:103E2C00E01F192F1A2F342F6008803A973E031881
:103E3C00202F212F222FED2E01300310D90CD80C5E
:103E4C00D70CD60CFF3E031D232F0130DA005A0885
:103E5C00E007031D322F332F222F4B2F203060020F
:103E6C00031C392F3A2F462FED2E0130DA000310A8
:103E7C00D60DD70DD80DD90DDA0B3D2F0130E00240
:103E8C006008031D4A2F4B2F3B2F5F0803194F2F40
:103E9C00502F5B2FD609D709D809D909D60A03198F
:103EAC00D70A0319D80A0319D90A0800003083125B
:103EBC0003132005F30000302105F40080302205A7
:103ECC00F5007F302305F60076087504740473043E
:103EDC00031D712F722F7A2F0030A3000030A20027
:103EEC000030A1000030A00000302405F3000030A9
:103EFC002505F40080302605F5007F302705F600F7
:103F0C007608750474047304031D8D2F8E2F962F61
:103F1C000030A7000030A6000030A5000030A4003F
:103F2C00A31F992F9A2FBE2F0030F3000030F400FE
:103F3C000030F5008030F6002008F3022108031C45
:103F4C00210FA92FAA2FF4022208031C220FAF2F36
:103F5C00B02FF5022308031C230FB52FB62FF60242
:103F6C007608A3007508A2007408A1007308A000CD
:103F7C00A71FC12FC22FE62F0030F3000030F40032
:103F8C000030F5008030F6002408F3022508031CED
:103F9C00250FD12FD22FF4022608031C260FD72F62
:103FAC00D82FF5022708031C270FDD2FDE2FF60272
:103FBC007608A7007508A6007408A5007308A4006D
:103FCC008030A3068030A70627082302031DF82F94
:103FDC0026082202031DF82F25082102031DF82FA5
:103FEC00240820020318FB2FFC2FFE2F0310FF2F99
:043FFC0003140800A2
:04400E00D420FF3F7C
:00000001FF
