:020000040000FA
:060000000A128A110C280F
:10000800FE00030EF2000A08F3000A128A11ED2816
:100018000A128A110F28F601F701F801F901830184
:100028000A128A1117280A128A1193200A128A11B1
:10003800053083120313A3002308F7008312031368
:100048009F182728282881289F141F0CA300230CF9
:100058000F39053A03193128332801303428003084
:10006800A4000530770603193A283C2801303D28BA
:1000780000302405003803194228432852281E0856
:10008800A3002308F6001E0888000630A3002308F2
:10009800F7001F08C33918389F007A281F0CA300DF
:1000A800230C0F39063A03195A285C2801305D28B9
:1000B8000030A4000630770603196328652801304C
:1000C800662800302405003803196B286C287A2824
:1000D8001E08A3002308F6001E0886000530A300AA
:1000E8002308F7001F08C33914389F0020308312F3
:1000F8000313A300A30B7E2800000B308312031305
:10010800A5002630A4005D30A300A30B8928A40B0A
:100118008928A50B892822280A128A110C28603000
:100128008316031788008901831603138601880143
:100138000330890083120313860188018316031391
:100148000F178F160F160F149F131F129F1283126B
:1001580003131F083F3940389F001F08C33914385C
:100168009F001F142130F500F50BB8288B170B17CB
:10017800831203138C11831603138C1585168312AF
:100188000313A001A101A20124300A128A11CF2071
:100198000A128A110800F400831603138712741DCB
:1001A800D628D728DF2883120313220883160313BF
:1001B80094008715E7288312031320082204831666
:1001C8000313940087117408831203132104940005
:1001D8000800831203138C1DF228F32804290A123D
:1001E8008A110B210A128A11F1007108F9007608A8
:1001F8000A128A111B210A128A11831203138C1105
:1002080073088A00720E8300FE0E7E0E09000A1221
:100218008A1114210A128A11831203131308080081
:1002280083160313141C19291A2914290800F0002D
:0A02380070088312031393000800FE
:04400E00D420FF3F7C
:00000001FF
