:020000040000FA
:060000000A128A1110280B
:10000800FE00030E83120313C7000A08C8007F0806
:10001800C9000A128A11C22B0A128A1113288313E3
:100028004A3084005B300A128A113E240A128A116F
:10003800831790308400E0300A128A113E240A1295
:100048008A1183010A128A11C02A8312031327080E
:100058008039A8002808B1002708A8002807A900A7
:100068002908B800A61F39283A283B283814380828
:1000780003193F2840285028380A031D44284528DA
:100088004D280030A7000030A6000030A500003041
:10009800A400A617A70158280030A7000030A60022
:1000A8000030A5000030A40023088039A8002808E3
:1000B800B1062308A8002807A9002908B900A21F2B
:1000C8006628672868283914390803196C286D28A8
:1000D8007D28390A031D712872287A280030A30068
:1000E8000030A2000030A1000030A000A217A30138
:1000F80085280030A3000030A2000030A1000030A5
:10010800A0002308220421042004031D8C288D2824
:10011800A6280030A7000030A6000030A500003057
:10012800A4008030A6047F30A7043108A80028085E
:10013800A7042708A3002608A2002508A100240870
:10014800A000052A3808031DAA28AB28B4280030C7
:10015800A3000030A2000030A1000030A000052A52
:100168003808A800A9012908AB0039082802AA0004
:10017800031CAB032A087F3EB2002B080318013E7C
:10018800003EB3002708B0002608AF002508AE00DF
:100198002408AD000030A7000030A6000030A500FC
:1001A8000030A4000030B7000030B6000030B500C1
:1001B8000030B400B9012A2939080319E428E528D0
:1001C80005290130A8000310AD0DAE0DAF0DB00D1F
:1001D800A80BE7280130A8000310A40DA50DA60D53
:1001E800A70DA80BF028B71FFA28FB28FC28241411
:1001F8000130A8000310B40DB50DB60DB70DA80B4E
:10020800FE2823083002031D132922082F02031D8C
:10021800132921082E02031D132920082D02031C6F
:1002280016291729262937172008AD022108031C8B
:10023800210FAE022208031C220FAF022308031C61
:10024800230FB0020130A8002808B9071A30390274
:10025800031C2F293029E02830082F042E042D04F0
:100268000319372938295729341457290130A80088
:100278000310A40DA50DA60DA70DA80B3C29B71FAB
:1002880046294729482924140130A8000310B40D31
:10029800B50DB60DB70DA80B4A29FF30B2070318E4
:1002A800B30AFF30B307A61F5A295B293A29B901B7
:1002B800B71F5F2960297C29FF303405A800FF306B
:1002C8003505A900FF303605AA007F303705AB0099
:1002D8002B082A0429042804031973297429772967
:1002E800B901B90A7C29241C7A297B297C2974291B
:1002F8003908031980298129B2290130A40700305F
:1003080003180130A507003003180130A607003094
:1003180003180130A707271C92299329B22924081A
:10032800A8002508A9002608AA002708AB00013064
:10033800AC002B0DAB0CAA0CA90CA80CAC0B9D297E
:100348002B08A7002A08A6002908A5002808A40049
:100358000130B2070318B30A0030B3073308803AF4
:10036800FF0080307F02031DBB29FF303202031CCF
:10037800BE29BF29CD29FF3083120313B2000030F4
:10038800B3000030A7000030A6000030A500003000
:10039800A400831203133308803AFF0080307F02E1
:1003A800031DD829013032020318DB29DC29E92989
:1003B80083120313B201B3010030A7000030A60076
:1003C8000030A5000030A400B101831203133208E5
:1003D800A8002808B800381CF229F329F529A6171F
:1003E800F9297F30A8002808A6053808A8000310B6
:1003F800280CA9002908A7003108A8002808A70484
:100408009D280800F800780803190B2A0C2A202ACE
:10041800F31F0F2A102A202A7009FA007109FB001D
:100428007209FC007309FD00FA0A0319FB0A031993
:10043800FC0A0319FD0A282A7308FD007208FC004B
:100448007108FB007008FA007308720471047004E4
:10045800031D2F2A302A392A0030F3000030F20019
:100468000030F1000030F000BF2A9630F400740824
:10047800F9004B2A0130F4007408F9070130031021
:10048800FD0CFC0CFB0CFA0CFF3E031D432AFE304E
:100498007D05031D502A512A3E2A6D2A0130F40099
:1004A8007408F9070130FA07003003180130FB0718
:1004B800003003180130FC07003003180130FD0735
:1004C80001300310FD0CFC0CFB0CFA0CFF3E031D65
:1004D800652AFF307D05031D722A732A522A7F2A56
:1004E8000130F9020130F4000310FA0DFB0DFC0D88
:1004F800FD0DF40B782AFC1B822A832A892A0230F4
:1005080079020318882A892A742A79188C2A8D2A4C
:10051800952AFF30FA05FF30FB057F30FC05FF30D8
:10052800FD050310F90C7908F400F501F601F7014F
:1005380018300310F40DF50DF60DF70DFF3E031DF1
:100548009D2A7408FA047508FB047608FC047708E9
:10055800FD0478080319B12AB22AB72AF31FB52A6D
:10056800B62AB72AFD177D08F3007C08F2007B083D
:10057800F1007A08F00008000A128A111E240A12F3
:100588008A11103083120313900083120313071C7F
:10059800CE2ACF2AD22A86140611D42A0615861006
:1005A8008F018E010614053083160313A000A00BDB
:1005B800DB2ADE2A83120313061002308316031384
:1005C800A2000430A100B930A000A00BE92AA10BB9
:1005D800E92AA20BE92AF02A831203135808013EDC
:1005E800D80059080318013E003ED900851559085E
:1005F800803AFF0080307F02031D042B023058022E
:10060800031C072B082B302B831203135908803A3D
:10061800FF0081307F02031D132B9130580203180D
:10062800162B172B302B831203135908803AFF001F
:1006380080307F02031D222B0C3058020318252B13
:10064800262B2B2B8312031305148510332B8312AF
:10065800031305108514332B831203130515053076
:1006680083160313A2000F30A100F030A000A00BE6
:100678003B2BA10B3B2BA20B3B2B0000C92A0A12D8
:100688008A1110280310831203133C0D3D0DBE0080
:100698003E08C4004408031D522B532B5C2B00302A
:1006A800BD000030BC000030BB000030BA00C12BD8
:1006B8003A08BE003B08BF003C08C0003D08C10026
:1006C8001F300310C10CC00CBF0CBE0CFF3E031D35
:1006D800652B3E08C2004208C300BC17FF30BA05AC
:1006E800FF30BB05FF30BC050030BD059630C402A5
:1006F800C41F7F2B802B9A2B4408803A973E0318FF
:10070800862B872B882B532B01300310BD0CBC0C78
:10071800BB0CBA0CFF3E031D892B0130BE003E08FE
:10072800C407031D982B992B882BB12B203044022A
:10073800031C9F2BA02BAC2B532B0130BE000310A6
:10074800BA0DBB0DBC0DBD0DBE0BA32B0130C402F1
:100758004408031DB02BB12BA12B43080319B52B5B
:10076800B62BC12BBA09BB09BC09BD09BA0A0319C2
:10077800BB0A0319BC0A0319BD0A08000B1CC52BC8
:10078800C62B132C8B11061ECA2BCB2BCC2B10146B
:10079800061ACF2BD02B132C10100F08C500C6013A
:1007A8004508C600C50145080E04F0004608F100DA
:1007B800F201F11BF2037208F30001300A128A11E8
:1007C80006220A128A11730883120313A7007208FB
:1007D800A6007108A5007008A4004230A3006B3081
:1007E800A2004730A100AE30A0000A128A112920C9
:1007F8000A128A11831203132308BD002208BC00C1
:100808002108BB002008BA000A128A1146230A12DE
:100818008A11831203133B08D9003A08D8000B1039
:100828008B154908FF0048088A00470E8300FE0E12
:100838007E0E09008316031788018901103083167C
:100848000313860088018501013087008312031392
:100858008501860187018801831603130F178F16F8
:100868000F160F14811315168B150B1016160B1770
:100878008B17080064008001840A040603190034F9
:0408880004063F2CF7
:04400E00D420FF3F7C
:00000001FF
